{
  "contractName": "AmazingDapp",
  "abi": [
    {
      "constant": true,
      "inputs": [
        {
          "internalType": "string",
          "name": "name",
          "type": "string"
        }
      ],
      "name": "checkIfExist",
      "outputs": [
        {
          "internalType": "bool",
          "name": "",
          "type": "bool"
        }
      ],
      "payable": false,
      "stateMutability": "view",
      "type": "function"
    },
    {
      "constant": false,
      "inputs": [
        {
          "internalType": "string",
          "name": "name",
          "type": "string"
        }
      ],
      "name": "registerName",
      "outputs": [],
      "payable": false,
      "stateMutability": "nonpayable",
      "type": "function"
    }
  ],
  "bytecode": "0x608060405234801561001057600080fd5b50610302806100206000396000f3fe608060405234801561001057600080fd5b50600436106100365760003560e01c80630830602b1461003b5780634301dd62146100f6575b600080fd5b6100f46004803603602081101561005157600080fd5b810190808035906020019064010000000081111561006e57600080fd5b82018360208201111561008057600080fd5b803590602001918460018302840111640100000000831117156100a257600080fd5b91908080601f016020809104026020016040519081016040528093929190818152602001838380828437600081840152601f19601f8201169050808301925050505050505091929192905050506101c9565b005b6101af6004803603602081101561010c57600080fd5b810190808035906020019064010000000081111561012957600080fd5b82018360208201111561013b57600080fd5b8035906020019184600183028401116401000000008311171561015d57600080fd5b91908080601f016020809104026020016040519081016040528093929190818152602001838380828437600081840152601f19601f82011690508083019250505050505050919291929050505061024e565b604051808215151515815260200191505060405180910390f35b60016000826040518082805190602001908083835b6020831061020157805182526020820191506020810190506020830392506101de565b6001836020036101000a038019825116818451168082178552505050505050905001915050908152602001604051809103902060006101000a81548160ff02191690831515021790555050565b600080826040518082805190602001908083835b602083106102855780518252602082019150602081019050602083039250610262565b6001836020036101000a038019825116818451168082178552505050505050905001915050908152602001604051809103902060009054906101000a900460ff16905091905056fea265627a7a7231582029f7ab26f9d0b66260f96302c0539602e100b400fb675517324b3a9a1d74f40264736f6c63430005100032",
  "source": "pragma solidity >=0.5.16;\r\n\r\ncontract AmazingDapp {\r\n\tmapping (string => bool) private names;\r\n\t\r\n\tfunction checkIfExist(string memory name) public view returns (bool){\r\n\t\treturn names[name];\r\n\t}\r\n\tfunction registerName(string memory name) public {\r\n\t\tnames[name] = true;\r\n\t}\r\n}",
  "sourcePath": "D:/Apps/hashable-art-dapp/contracts/AmazingDapp.sol",
  "compiler": {
    "name": "solc",
    "version": "0.5.16+commit.9c3226ce.Emscripten.clang"
  },
  "schemaVersion": "3.3.4",
  "updatedAt": "2021-04-05T17:35:58.614Z",
  "networkType": "ethereum",
  "devdoc": {
    "methods": {}
  },
  "userdoc": {
    "methods": {}
  }
}