{
  "contractName": "ERC1155MetaPackedBalance",
  "abi": [
    {
      "anonymous": false,
      "inputs": [
        {
          "indexed": true,
          "internalType": "address",
          "name": "_owner",
          "type": "address"
        },
        {
          "indexed": true,
          "internalType": "address",
          "name": "_operator",
          "type": "address"
        },
        {
          "indexed": false,
          "internalType": "bool",
          "name": "_approved",
          "type": "bool"
        }
      ],
      "name": "ApprovalForAll",
      "type": "event"
    },
    {
      "anonymous": false,
      "inputs": [
        {
          "indexed": true,
          "internalType": "address",
          "name": "signer",
          "type": "address"
        },
        {
          "indexed": false,
          "internalType": "uint256",
          "name": "newNonce",
          "type": "uint256"
        }
      ],
      "name": "NonceChange",
      "type": "event"
    },
    {
      "anonymous": false,
      "inputs": [
        {
          "indexed": true,
          "internalType": "address",
          "name": "_operator",
          "type": "address"
        },
        {
          "indexed": true,
          "internalType": "address",
          "name": "_from",
          "type": "address"
        },
        {
          "indexed": true,
          "internalType": "address",
          "name": "_to",
          "type": "address"
        },
        {
          "indexed": false,
          "internalType": "uint256[]",
          "name": "_ids",
          "type": "uint256[]"
        },
        {
          "indexed": false,
          "internalType": "uint256[]",
          "name": "_amounts",
          "type": "uint256[]"
        }
      ],
      "name": "TransferBatch",
      "type": "event"
    },
    {
      "anonymous": false,
      "inputs": [
        {
          "indexed": true,
          "internalType": "address",
          "name": "_operator",
          "type": "address"
        },
        {
          "indexed": true,
          "internalType": "address",
          "name": "_from",
          "type": "address"
        },
        {
          "indexed": true,
          "internalType": "address",
          "name": "_to",
          "type": "address"
        },
        {
          "indexed": false,
          "internalType": "uint256",
          "name": "_id",
          "type": "uint256"
        },
        {
          "indexed": false,
          "internalType": "uint256",
          "name": "_amount",
          "type": "uint256"
        }
      ],
      "name": "TransferSingle",
      "type": "event"
    },
    {
      "inputs": [
        {
          "internalType": "address",
          "name": "_owner",
          "type": "address"
        },
        {
          "internalType": "uint256",
          "name": "_id",
          "type": "uint256"
        }
      ],
      "name": "balanceOf",
      "outputs": [
        {
          "internalType": "uint256",
          "name": "",
          "type": "uint256"
        }
      ],
      "stateMutability": "view",
      "type": "function"
    },
    {
      "inputs": [
        {
          "internalType": "address[]",
          "name": "_owners",
          "type": "address[]"
        },
        {
          "internalType": "uint256[]",
          "name": "_ids",
          "type": "uint256[]"
        }
      ],
      "name": "balanceOfBatch",
      "outputs": [
        {
          "internalType": "uint256[]",
          "name": "",
          "type": "uint256[]"
        }
      ],
      "stateMutability": "view",
      "type": "function"
    },
    {
      "inputs": [
        {
          "internalType": "uint256",
          "name": "_id",
          "type": "uint256"
        }
      ],
      "name": "getIDBinIndex",
      "outputs": [
        {
          "internalType": "uint256",
          "name": "bin",
          "type": "uint256"
        },
        {
          "internalType": "uint256",
          "name": "index",
          "type": "uint256"
        }
      ],
      "stateMutability": "pure",
      "type": "function"
    },
    {
      "inputs": [
        {
          "internalType": "uint256",
          "name": "_binValues",
          "type": "uint256"
        },
        {
          "internalType": "uint256",
          "name": "_index",
          "type": "uint256"
        }
      ],
      "name": "getValueInBin",
      "outputs": [
        {
          "internalType": "uint256",
          "name": "",
          "type": "uint256"
        }
      ],
      "stateMutability": "pure",
      "type": "function"
    },
    {
      "inputs": [
        {
          "internalType": "address",
          "name": "_owner",
          "type": "address"
        },
        {
          "internalType": "address",
          "name": "_operator",
          "type": "address"
        }
      ],
      "name": "isApprovedForAll",
      "outputs": [
        {
          "internalType": "bool",
          "name": "isOperator",
          "type": "bool"
        }
      ],
      "stateMutability": "view",
      "type": "function"
    },
    {
      "inputs": [
        {
          "internalType": "address",
          "name": "_signerAddress",
          "type": "address"
        },
        {
          "internalType": "bytes32",
          "name": "_hash",
          "type": "bytes32"
        },
        {
          "internalType": "bytes",
          "name": "_data",
          "type": "bytes"
        },
        {
          "internalType": "bytes",
          "name": "_sig",
          "type": "bytes"
        }
      ],
      "name": "isValidSignature",
      "outputs": [
        {
          "internalType": "bool",
          "name": "isValid",
          "type": "bool"
        }
      ],
      "stateMutability": "view",
      "type": "function"
    },
    {
      "inputs": [
        {
          "internalType": "address",
          "name": "_from",
          "type": "address"
        },
        {
          "internalType": "address",
          "name": "_to",
          "type": "address"
        },
        {
          "internalType": "uint256[]",
          "name": "_ids",
          "type": "uint256[]"
        },
        {
          "internalType": "uint256[]",
          "name": "_amounts",
          "type": "uint256[]"
        },
        {
          "internalType": "bytes",
          "name": "_data",
          "type": "bytes"
        }
      ],
      "name": "safeBatchTransferFrom",
      "outputs": [],
      "stateMutability": "nonpayable",
      "type": "function"
    },
    {
      "inputs": [
        {
          "internalType": "address",
          "name": "_from",
          "type": "address"
        },
        {
          "internalType": "address",
          "name": "_to",
          "type": "address"
        },
        {
          "internalType": "uint256",
          "name": "_id",
          "type": "uint256"
        },
        {
          "internalType": "uint256",
          "name": "_amount",
          "type": "uint256"
        },
        {
          "internalType": "bytes",
          "name": "_data",
          "type": "bytes"
        }
      ],
      "name": "safeTransferFrom",
      "outputs": [],
      "stateMutability": "nonpayable",
      "type": "function"
    },
    {
      "inputs": [
        {
          "internalType": "address",
          "name": "_operator",
          "type": "address"
        },
        {
          "internalType": "bool",
          "name": "_approved",
          "type": "bool"
        }
      ],
      "name": "setApprovalForAll",
      "outputs": [],
      "stateMutability": "nonpayable",
      "type": "function"
    },
    {
      "inputs": [
        {
          "internalType": "bytes4",
          "name": "_interfaceID",
          "type": "bytes4"
        }
      ],
      "name": "supportsInterface",
      "outputs": [
        {
          "internalType": "bool",
          "name": "",
          "type": "bool"
        }
      ],
      "stateMutability": "pure",
      "type": "function"
    },
    {
      "inputs": [
        {
          "internalType": "address",
          "name": "_from",
          "type": "address"
        },
        {
          "internalType": "address",
          "name": "_to",
          "type": "address"
        },
        {
          "internalType": "uint256",
          "name": "_id",
          "type": "uint256"
        },
        {
          "internalType": "uint256",
          "name": "_amount",
          "type": "uint256"
        },
        {
          "internalType": "bool",
          "name": "_isGasFee",
          "type": "bool"
        },
        {
          "internalType": "bytes",
          "name": "_data",
          "type": "bytes"
        }
      ],
      "name": "metaSafeTransferFrom",
      "outputs": [],
      "stateMutability": "nonpayable",
      "type": "function"
    },
    {
      "inputs": [
        {
          "internalType": "address",
          "name": "_from",
          "type": "address"
        },
        {
          "internalType": "address",
          "name": "_to",
          "type": "address"
        },
        {
          "internalType": "uint256[]",
          "name": "_ids",
          "type": "uint256[]"
        },
        {
          "internalType": "uint256[]",
          "name": "_amounts",
          "type": "uint256[]"
        },
        {
          "internalType": "bool",
          "name": "_isGasFee",
          "type": "bool"
        },
        {
          "internalType": "bytes",
          "name": "_data",
          "type": "bytes"
        }
      ],
      "name": "metaSafeBatchTransferFrom",
      "outputs": [],
      "stateMutability": "nonpayable",
      "type": "function"
    },
    {
      "inputs": [
        {
          "internalType": "address",
          "name": "_owner",
          "type": "address"
        },
        {
          "internalType": "address",
          "name": "_operator",
          "type": "address"
        },
        {
          "internalType": "bool",
          "name": "_approved",
          "type": "bool"
        },
        {
          "internalType": "bool",
          "name": "_isGasFee",
          "type": "bool"
        },
        {
          "internalType": "bytes",
          "name": "_data",
          "type": "bytes"
        }
      ],
      "name": "metaSetApprovalForAll",
      "outputs": [],
      "stateMutability": "nonpayable",
      "type": "function"
    },
    {
      "inputs": [
        {
          "internalType": "address",
          "name": "_signer",
          "type": "address"
        }
      ],
      "name": "getNonce",
      "outputs": [
        {
          "internalType": "uint256",
          "name": "nonce",
          "type": "uint256"
        }
      ],
      "stateMutability": "view",
      "type": "function"
    }
  ],
  "bytecode": "0x608060405234801561001057600080fd5b506147f6806100206000396000f3fe608060405234801561001057600080fd5b50600436106100e95760003560e01c8063ce0b514b1161008c578063eaec5f8111610066578063eaec5f811461027f578063f242432a146102af578063f5d4c820146102cb578063fa4e12d7146102e7576100e9565b8063ce0b514b14610202578063db90e83c1461021e578063e985e9c51461024f576100e9565b80632eb2c2d6116100c85780632eb2c2d61461017e5780634e1273f41461019a578063a22cb465146101ca578063a3d4926e146101e6576100e9565b8062fdd58e146100ee57806301ffc9a71461011e5780632d0335ab1461014e575b600080fd5b61010860048036038101906101039190613688565b610317565b604051610115919061406f565b60405180910390f35b61013860048036038101906101339190613759565b610390565b6040516101459190613e7f565b60405180910390f35b610168600480360381019061016391906131a0565b610412565b604051610175919061406f565b60405180910390f35b6101986004803603810190610193919061333b565b61045b565b005b6101b460048036038101906101af91906136c4565b610597565b6040516101c19190613e5d565b60405180910390f35b6101e460048036038101906101df91906135b9565b61083b565b005b61020060048036038101906101fb919061326a565b61093a565b005b61021c60048036038101906102179190613489565b610ad2565b005b6102386004803603810190610233919061389b565b610c1e565b60405161024692919061408a565b60405180910390f35b6102696004803603810190610264919061322e565b610c56565b6040516102769190613e7f565b60405180910390f35b610299600480360381019061029491906138c4565b610cea565b6040516102a6919061406f565b60405180910390f35b6102c960048036038101906102c4919061352a565b610d10565b005b6102e560048036038101906102e091906133fa565b610e4c565b005b61030160048036038101906102fc91906135f5565b610ff2565b60405161030e9190613e7f565b60405180910390f35b600080600061032584610c1e565b80925081935050506103866000808773ffffffffffffffffffffffffffffffffffffffff1673ffffffffffffffffffffffffffffffffffffffff16815260200190815260200160002060008481526020019081526020016000205482610cea565b9250505092915050565b60007fd9b67a26000000000000000000000000000000000000000000000000000000007bffffffffffffffffffffffffffffffffffffffffffffffffffffffff1916827bffffffffffffffffffffffffffffffffffffffffffffffffffffffff19161415610401576001905061040d565b61040a82611881565b90505b919050565b6000600260008373ffffffffffffffffffffffffffffffffffffffff1673ffffffffffffffffffffffffffffffffffffffff168152602001908152602001600020549050919050565b8473ffffffffffffffffffffffffffffffffffffffff163373ffffffffffffffffffffffffffffffffffffffff16148061049b575061049a8533610c56565b5b6104f0576040517f08c379a000000000000000000000000000000000000000000000000000000000815260040180806020018281038252603c8152602001806145a7603c913960400191505060405180910390fd5b600073ffffffffffffffffffffffffffffffffffffffff168473ffffffffffffffffffffffffffffffffffffffff161415610576576040517f08c379a000000000000000000000000000000000000000000000000000000000815260040180806020018281038252603d815260200180614394603d913960400191505060405180910390fd5b610582858585856118d2565b610590858585855a86611ec0565b5050505050565b6060600083519050825181146105f8576040517f08c379a000000000000000000000000000000000000000000000000000000000815260040180806020018281038252603981526020018061435b6039913960400191505060405180910390fd5b6000806106188560008151811061060b57fe5b6020026020010151610c1e565b9150915060008060008860008151811061062e57fe5b602002602001015173ffffffffffffffffffffffffffffffffffffffff1673ffffffffffffffffffffffffffffffffffffffff1681526020019081526020016000206000848152602001908152602001600020549050600083905060608567ffffffffffffffff811180156106a257600080fd5b506040519080825280602002602001820160405280156106d15781602001602082028036833780820191505090505b5090506106de8385610cea565b816000815181106106eb57fe5b6020026020010181815250506000600190505b8681101561082b5761072289828151811061071557fe5b6020026020010151610c1e565b8096508197505050828614158061078e575089818151811061074057fe5b602002602001015173ffffffffffffffffffffffffffffffffffffffff168a600183038151811061076d57fe5b602002602001015173ffffffffffffffffffffffffffffffffffffffff1614155b156107fc576000808b83815181106107a257fe5b602002602001015173ffffffffffffffffffffffffffffffffffffffff1673ffffffffffffffffffffffffffffffffffffffff16815260200190815260200160002060008781526020019081526020016000205493508592505b6108068486610cea565b82828151811061081257fe5b60200260200101818152505080806001019150506106fe565b5080965050505050505092915050565b80600160003373ffffffffffffffffffffffffffffffffffffffff1673ffffffffffffffffffffffffffffffffffffffff16815260200190815260200160002060008473ffffffffffffffffffffffffffffffffffffffff1673ffffffffffffffffffffffffffffffffffffffff16815260200190815260200160002060006101000a81548160ff0219169083151502179055508173ffffffffffffffffffffffffffffffffffffffff163373ffffffffffffffffffffffffffffffffffffffff167f17307eab39ab6107e8899845ad3d59bd9653f200f220920489ca2b5937696c318360405180821515815260200191505060405180910390a35050565b600073ffffffffffffffffffffffffffffffffffffffff168573ffffffffffffffffffffffffffffffffffffffff1614156109aa576040517f08c379a00000000000000000000000000000000000000000000000000000000081526004016109a19061402f565b60405180910390fd5b60606109b4612e6b565b6060610a6789857fa3d4926e8cf8fe8e020cd29f514c256bc2eec62aa2337e415f1a33a4828af5a060001b8c8c8c6040516020016109f29190613d49565b604051602081830303815290604052805190602001208c604051602001610a199190613d49565b604051602081830303815290604052805190602001208c610a3b576000610a3e565b60015b604051602001610a5396959493929190613e9a565b604051602081830303815290604052612152565b9050610a75898989896118d2565b8415610ab85780806020019051810190610a8f919061382f565b8094508193505050610aa989898989866020015188611ec0565b610ab38983612376565b610ac7565b610ac6898989895a86611ec0565b5b505050505050505050565b600073ffffffffffffffffffffffffffffffffffffffff168573ffffffffffffffffffffffffffffffffffffffff161415610b42576040517f08c379a0000000000000000000000000000000000000000000000000000000008152600401610b399061400f565b60405180910390fd5b6060610b4c612e6b565b6060610bb389857fce0b514b3931bdbe4d5d44e4f035afe7113767b7db71949271f6a62d9c60f55860001b8c8c8c8c8c610b87576000610b8a565b60015b604051602001610b9f96959493929190613f4e565b604051602081830303815290604052612152565b9050610bc18989898961264e565b8415610c045780806020019051810190610bdb919061382f565b8094508193505050610bf5898989898660200151886126f2565b610bff8983612376565b610c13565b610c12898989895a866126f2565b5b505050505050505050565b600080602061010081610c2d57fe5b048381610c3657fe5b049150602061010081610c4557fe5b048381610c4e57fe5b069050915091565b6000600160008473ffffffffffffffffffffffffffffffffffffffff1673ffffffffffffffffffffffffffffffffffffffff16815260200190815260200160002060008373ffffffffffffffffffffffffffffffffffffffff1673ffffffffffffffffffffffffffffffffffffffff16815260200190815260200160002060009054906101000a900460ff16905092915050565b600080600160206001901b0390506000836020029050818186901c169250505092915050565b8473ffffffffffffffffffffffffffffffffffffffff163373ffffffffffffffffffffffffffffffffffffffff161480610d505750610d4f8533610c56565b5b610da5576040517f08c379a00000000000000000000000000000000000000000000000000000000081526004018080602001828103825260378152602001806144756037913960400191505060405180910390fd5b600073ffffffffffffffffffffffffffffffffffffffff168473ffffffffffffffffffffffffffffffffffffffff161415610e2b576040517f08c379a00000000000000000000000000000000000000000000000000000000081526004018080602001828103825260388152602001806146d66038913960400191505060405180910390fd5b610e378585858561264e565b610e45858585855a866126f2565b5050505050565b6060610ebf86837ff5d4c820494c8595de274c7ff619bead38aac4fbc3d143b5bf956aa4b84fa52460001b898989610e85576000610e88565b60015b89610e94576000610e97565b60015b604051602001610eab959493929190613efb565b604051602081830303815290604052612152565b905083600160008873ffffffffffffffffffffffffffffffffffffffff1673ffffffffffffffffffffffffffffffffffffffff16815260200190815260200160002060008773ffffffffffffffffffffffffffffffffffffffff1673ffffffffffffffffffffffffffffffffffffffff16815260200190815260200160002060006101000a81548160ff0219169083151502179055508473ffffffffffffffffffffffffffffffffffffffff168673ffffffffffffffffffffffffffffffffffffffff167f17307eab39ab6107e8899845ad3d59bd9653f200f220920489ca2b5937696c3186604051610fb29190613e7f565b60405180910390a38215610fea57610fc8612e6b565b81806020019051810190610fdc91906137ee565b9050610fe88782612376565b505b505050505050565b60008082511161104d576040517f08c379a00000000000000000000000000000000000000000000000000000000081526004018080602001828103825260438152602001806146936043913960600191505060405180910390fd5b600073ffffffffffffffffffffffffffffffffffffffff168573ffffffffffffffffffffffffffffffffffffffff1614156110d3576040517f08c379a00000000000000000000000000000000000000000000000000000000081526004018080602001828103825260338152602001806146196033913960400191505060405180910390fd5b60006110de83612902565b60f81c90506005808111156110ef57fe5b60ff168160ff161061114c576040517f08c379a000000000000000000000000000000000000000000000000000000000815260040180806020018281038252603a81526020018061443b603a913960400191505060405180910390fd5b60008160ff16600581111561115d57fe5b90506000806000806000600581111561117257fe5b85600581111561117e57fe5b14156111d5576040517f08c379a00000000000000000000000000000000000000000000000000000000081526004018080602001828103825260368152602001806144ac6036913960400191505060405180910390fd5b600160058111156111e257fe5b8560058111156111ee57fe5b141561133957606188511461124e576040517f08c379a00000000000000000000000000000000000000000000000000000000081526004018080602001828103825260378152602001806145706037913960400191505060405180910390fd5b61126260008961298890919063ffffffff16565b925061127860208961298890919063ffffffff16565b91508760408151811061128757fe5b602001015160f81c60f81b60f81c935060018a85858560405160008152602001604052604051808581526020018460ff1681526020018381526020018281526020019450505050506020604051602081039080840390855afa1580156112f1573d6000803e3d6000fd5b5050506020604051035190508073ffffffffffffffffffffffffffffffffffffffff168b73ffffffffffffffffffffffffffffffffffffffff16149650505050505050611879565b6002600581111561134657fe5b85600581111561135257fe5b14156114eb5760618851146113b2576040517f08c379a00000000000000000000000000000000000000000000000000000000081526004018080602001828103825260378152602001806145706037913960400191505060405180910390fd5b6113c660008961298890919063ffffffff16565b92506113dc60208961298890919063ffffffff16565b9150876040815181106113eb57fe5b602001015160f81c60f81b60f81c935060018a60405160200180807f19457468657265756d205369676e6564204d6573736167653a0a333200000000815250601c018281526020019150506040516020818303038152906040528051906020012085858560405160008152602001604052604051808581526020018460ff1681526020018381526020018281526020019450505050506020604051602081039080840390855afa1580156114a3573d6000803e3d6000fd5b5050506020604051035190508073ffffffffffffffffffffffffffffffffffffffff168b73ffffffffffffffffffffffffffffffffffffffff16149650505050505050611879565b600360058111156114f857fe5b85600581111561150457fe5b14156116bc578a73ffffffffffffffffffffffffffffffffffffffff166320c13b0b8a8a6040518363ffffffff1660e01b8152600401808060200180602001838103835285818151815260200191508051906020019080838360005b8381101561157b578082015181840152602081019050611560565b50505050905090810190601f1680156115a85780820380516001836020036101000a031916815260200191505b50838103825284818151815260200191508051906020019080838360005b838110156115e15780820151818401526020810190506115c6565b50505050905090810190601f16801561160e5780820380516001836020036101000a031916815260200191505b5094505050505060206040518083038186803b15801561162d57600080fd5b505afa158015611641573d6000803e3d6000fd5b505050506040513d602081101561165757600080fd5b81019080805190602001909291905050507bffffffffffffffffffffffffffffffffffffffffffffffffffffffff19166320c13b0b60e01b7bffffffffffffffffffffffffffffffffffffffffffffffffffffffff1916149650505050505050611879565b600460058111156116c957fe5b8560058111156116d557fe5b1415611828578a73ffffffffffffffffffffffffffffffffffffffff16631626ba7e8b8a6040518363ffffffff1660e01b81526004018083815260200180602001828103825283818151815260200191508051906020019080838360005b8381101561174e578082015181840152602081019050611733565b50505050905090810190601f16801561177b5780820380516001836020036101000a031916815260200191505b50935050505060206040518083038186803b15801561179957600080fd5b505afa1580156117ad573d6000803e3d6000fd5b505050506040513d60208110156117c357600080fd5b81019080805190602001909291905050507bffffffffffffffffffffffffffffffffffffffffffffffffffffffff1916631626ba7e60e01b7bffffffffffffffffffffffffffffffffffffffffffffffffffffffff1916149650505050505050611879565b6040517f08c379a000000000000000000000000000000000000000000000000000000000815260040180806020018281038252603a81526020018061443b603a913960400191505060405180910390fd5b949350505050565b60006301ffc9a760e01b7bffffffffffffffffffffffffffffffffffffffffffffffffffffffff1916827bffffffffffffffffffffffffffffffffffffffffffffffffffffffff1916149050919050565b60008251905081518114611931576040517f08c379a00000000000000000000000000000000000000000000000000000000081526004018080602001828103825260428152602001806144e26042913960600191505060405180910390fd5b8373ffffffffffffffffffffffffffffffffffffffff168573ffffffffffffffffffffffffffffffffffffffff161415801561196d5750600081115b15611d11576000806119928560008151811061198557fe5b6020026020010151610c1e565b915091506000611a086000808a73ffffffffffffffffffffffffffffffffffffffff1673ffffffffffffffffffffffffffffffffffffffff16815260200190815260200160002060008581526020019081526020016000205483876000815181106119f957fe5b602002602001015160016129f9565b90506000611a7c6000808a73ffffffffffffffffffffffffffffffffffffffff1673ffffffffffffffffffffffffffffffffffffffff1681526020019081526020016000206000868152602001908152602001600020548488600081518110611a6d57fe5b602002602001015160006129f9565b905060008490506000600190505b86811015611c5e57611aae898281518110611aa157fe5b6020026020010151610c1e565b8096508197505050818614611c0d57836000808d73ffffffffffffffffffffffffffffffffffffffff1673ffffffffffffffffffffffffffffffffffffffff168152602001908152602001600020600084815260200190815260200160002081905550826000808c73ffffffffffffffffffffffffffffffffffffffff1673ffffffffffffffffffffffffffffffffffffffff1681526020019081526020016000206000848152602001908152602001600020819055506000808c73ffffffffffffffffffffffffffffffffffffffff1673ffffffffffffffffffffffffffffffffffffffff16815260200190815260200160002060008781526020019081526020016000205493506000808b73ffffffffffffffffffffffffffffffffffffffff1673ffffffffffffffffffffffffffffffffffffffff16815260200190815260200160002060008781526020019081526020016000205492508591505b611c2d84868a8481518110611c1e57fe5b602002602001015160016129f9565b9350611c4f83868a8481518110611c4057fe5b602002602001015160006129f9565b92508080600101915050611a8a565b50826000808c73ffffffffffffffffffffffffffffffffffffffff1673ffffffffffffffffffffffffffffffffffffffff168152602001908152602001600020600087815260200190815260200160002081905550816000808b73ffffffffffffffffffffffffffffffffffffffff1673ffffffffffffffffffffffffffffffffffffffff1681526020019081526020016000206000878152602001908152602001600020819055505050505050611db3565b60005b81811015611db157828181518110611d2857fe5b6020026020010151611d4d87868481518110611d4057fe5b6020026020010151610317565b1015611da4576040517f08c379a00000000000000000000000000000000000000000000000000000000081526004018080602001828103825260368152602001806145e36036913960400191505060405180910390fd5b8080600101915050611d14565b505b8373ffffffffffffffffffffffffffffffffffffffff168573ffffffffffffffffffffffffffffffffffffffff163373ffffffffffffffffffffffffffffffffffffffff167f4a39dc06d4c0dbc64b70af90fd698a233a518aa5d07e595d983b8c0526c8f7fb8686604051808060200180602001838103835285818151815260200191508051906020019060200280838360005b83811015611e62578082015181840152602081019050611e47565b50505050905001838103825284818151815260200191508051906020019060200280838360005b83811015611ea4578082015181840152602081019050611e89565b5050505090500194505050505060405180910390a45050505050565b611edf8573ffffffffffffffffffffffffffffffffffffffff16612c35565b1561214a5760008573ffffffffffffffffffffffffffffffffffffffff1663bc197c8184338a8989886040518763ffffffff1660e01b8152600401808673ffffffffffffffffffffffffffffffffffffffff1681526020018573ffffffffffffffffffffffffffffffffffffffff168152602001806020018060200180602001848103845287818151815260200191508051906020019060200280838360005b83811015611f9a578082015181840152602081019050611f7f565b50505050905001848103835286818151815260200191508051906020019060200280838360005b83811015611fdc578082015181840152602081019050611fc1565b50505050905001848103825285818151815260200191508051906020019080838360005b8381101561201b578082015181840152602081019050612000565b50505050905090810190601f1680156120485780820380516001836020036101000a031916815260200191505b5098505050505050505050602060405180830381600088803b15801561206d57600080fd5b5087f1158015612081573d6000803e3d6000fd5b50505050506040513d602081101561209857600080fd5b8101908080519060200190929190505050905063bc197c8160e01b7bffffffffffffffffffffffffffffffffffffffffffffffffffffffff1916817bffffffffffffffffffffffffffffffffffffffffffffffffffffffff191614612148576040517f08c379a000000000000000000000000000000000000000000000000000000000815260040180806020018281038252604c815260200180614524604c913960600191505060405180910390fd5b505b505050505050565b606080838060200190518101906121699190613782565b80935081925050506000600260008773ffffffffffffffffffffffffffffffffffffffff1673ffffffffffffffffffffffffffffffffffffffff16815260200190815260200160002054905060006121cb60418461298890919063ffffffff16565b60001c90508181101580156121e257506064820181105b612221576040517f08c379a000000000000000000000000000000000000000000000000000000000815260040161221890613fcf565b60405180910390fd5b600061225d8683878051906020012060405160200161224293929190613d60565b60405160208183030381529060405280519060200120612c7a565b9050606086838760405160200161227693929190613d99565b604051602081830303815290604052905060018301600260008b73ffffffffffffffffffffffffffffffffffffffff1673ffffffffffffffffffffffffffffffffffffffff168152602001908152602001600020819055508873ffffffffffffffffffffffffffffffffffffffff167fb861b7bdbe611a846ab271b8d2810391bc8b5a968f390c322438ecab66bccf5960018501604051612317919061406f565b60405180910390a261232b89838388610ff2565b61236a576040517f08c379a000000000000000000000000000000000000000000000000000000000815260040161236190613fef565b60405180910390fd5b50505050509392505050565b60006123858260600151612902565b60f81c905060028081111561239657fe5b60ff168160ff16106123dd576040517f08c379a00000000000000000000000000000000000000000000000000000000081526004016123d49061404f565b60405180910390fd5b60008160ff1660028111156123ee57fe5b905060008060008086600001519050600073ffffffffffffffffffffffffffffffffffffffff16876040015173ffffffffffffffffffffffffffffffffffffffff161461243f578660400151612441565b335b92506000600281111561245057fe5b85600281111561245c57fe5b141561255b57866060015180602001905181019061247a91906131f2565b80935081955050503073ffffffffffffffffffffffffffffffffffffffff168473ffffffffffffffffffffffffffffffffffffffff1614156124e4576124c28884848461264e565b6124df8884845a85604051806020016040528060008152506126f2565b612556565b8373ffffffffffffffffffffffffffffffffffffffff1663f242432a898585856040518563ffffffff1660e01b81526004016125239493929190613e05565b600060405180830381600087803b15801561253d57600080fd5b505af1158015612551573d6000803e3d6000fd5b505050505b612644565b866060015180602001905181019061257391906131c9565b93508373ffffffffffffffffffffffffffffffffffffffff166323b872dd8985846040518463ffffffff1660e01b81526004016125b293929190613dce565b602060405180830381600087803b1580156125cc57600080fd5b505af11580156125e0573d6000803e3d6000fd5b505050506040513d601f19601f820116820180604052508101906126049190613730565b612643576040517f08c379a000000000000000000000000000000000000000000000000000000000815260040161263a90613faf565b60405180910390fd5b5b5050505050505050565b61265b8483836001612da1565b6126688383836000612da1565b8273ffffffffffffffffffffffffffffffffffffffff168473ffffffffffffffffffffffffffffffffffffffff163373ffffffffffffffffffffffffffffffffffffffff167fc3d58168c5ae7397731d063d5bbf3d657854427343f4c083240f7aacaa2d0f628585604051808381526020018281526020019250505060405180910390a450505050565b6127118573ffffffffffffffffffffffffffffffffffffffff16612c35565b156128fa5760008573ffffffffffffffffffffffffffffffffffffffff1663f23a6e6184338a8989886040518763ffffffff1660e01b8152600401808673ffffffffffffffffffffffffffffffffffffffff1681526020018573ffffffffffffffffffffffffffffffffffffffff16815260200184815260200183815260200180602001828103825283818151815260200191508051906020019080838360005b838110156127cd5780820151818401526020810190506127b2565b50505050905090810190601f1680156127fa5780820380516001836020036101000a031916815260200191505b509650505050505050602060405180830381600088803b15801561281d57600080fd5b5087f1158015612831573d6000803e3d6000fd5b50505050506040513d602081101561284857600080fd5b8101908080519060200190929190505050905063f23a6e6160e01b7bffffffffffffffffffffffffffffffffffffffffffffffffffffffff1916817bffffffffffffffffffffffffffffffffffffffffffffffffffffffff1916146128f8576040517f08c379a000000000000000000000000000000000000000000000000000000000815260040180806020018281038252604781526020018061464c6047913960600191505060405180910390fd5b505b505050505050565b60008082511161295d576040517f08c379a00000000000000000000000000000000000000000000000000000000081526004018080602001828103825260378152602001806143d16037913960400191505060405180910390fd5b8160018351038151811061296d57fe5b602001015160f81c60f81b9050600182510380835250919050565b600060208201835110156129e7576040517f08c379a000000000000000000000000000000000000000000000000000000000815260040180806020018281038252603c81526020018061470e603c913960400191505060405180910390fd5b60208201915081830151905092915050565b6000808460200290506000600160206001901b03905060006001811115612a1c57fe5b846001811115612a2857fe5b1415612af7578185901b8701925086831015612a8f576040517f08c379a000000000000000000000000000000000000000000000000000000000815260040180806020018281038252603281526020018061478f6032913960400191505060405180910390fd5b602060020a8582848a901c160110612af2576040517f08c379a000000000000000000000000000000000000000000000000000000000815260040180806020018281038252603281526020018061478f6032913960400191505060405180910390fd5b612c2b565b600180811115612b0357fe5b846001811115612b0f57fe5b1415612bd9578185901b8703925086831115612b76576040517f08c379a00000000000000000000000000000000000000000000000000000000081526004018080602001828103825260338152602001806144086033913960400191505060405180910390fd5b84818389901c161015612bd4576040517f08c379a00000000000000000000000000000000000000000000000000000000081526004018080602001828103825260338152602001806144086033913960400191505060405180910390fd5b612c2a565b6040517f08c379a000000000000000000000000000000000000000000000000000000000815260040180806020018281038252604581526020018061474a6045913960600191505060405180910390fd5b5b5050949350505050565b600080823f90506000801b8114158015612c7257507fc5d2460186f7233c927e7db2dcc703c0e500b653ca82273b7bfad8045d85a47060001b8114155b915050919050565b60006040518060400160405280600281526020017f19010000000000000000000000000000000000000000000000000000000000008152507f035aff83d86937d35b32e04f0ddc6ff469290eef2f1b692d8a815c89404d474960001b30604051602001808381526020018273ffffffffffffffffffffffffffffffffffffffff1681526020019250505060405160208183030381529060405280519060200120836040516020018084805190602001908083835b60208310612d515780518252602082019150602081019050602083039250612d2e565b6001836020036101000a0380198251168184511680821785525050505050509050018381526020018281526020019350505050604051602081830303815290604052805190602001209050919050565b600080612dad85610c1e565b8092508193505050612e106000808873ffffffffffffffffffffffffffffffffffffffff1673ffffffffffffffffffffffffffffffffffffffff1681526020019081526020016000206000848152602001908152602001600020548286866129f9565b6000808873ffffffffffffffffffffffffffffffffffffffff1673ffffffffffffffffffffffffffffffffffffffff168152602001908152602001600020600084815260200190815260200160002081905550505050505050565b60405180608001604052806000815260200160008152602001600073ffffffffffffffffffffffffffffffffffffffff168152602001606081525090565b600081359050612eb8816142d0565b92915050565b600081519050612ecd816142d0565b92915050565b600081519050612ee2816142e7565b92915050565b600082601f830112612ef957600080fd5b8135612f0c612f07826140e4565b6140b3565b91508181835260208401935060208101905083856020840282011115612f3157600080fd5b60005b83811015612f615781612f478882612ea9565b845260208401935060208301925050600181019050612f34565b5050505092915050565b600082601f830112612f7c57600080fd5b8135612f8f612f8a82614110565b6140b3565b91508181835260208401935060208101905083856020840282011115612fb457600080fd5b60005b83811015612fe45781612fca8882613176565b845260208401935060208301925050600181019050612fb7565b5050505092915050565b600081359050612ffd816142fe565b92915050565b600081519050613012816142fe565b92915050565b60008135905061302781614315565b92915050565b60008135905061303c8161432c565b92915050565b600082601f83011261305357600080fd5b81356130666130618261413c565b6140b3565b9150808252602083016020830185838301111561308257600080fd5b61308d838284614278565b50505092915050565b600082601f8301126130a757600080fd5b81516130ba6130b58261413c565b6140b3565b915080825260208301602083018583830111156130d657600080fd5b6130e1838284614287565b50505092915050565b6000608082840312156130fc57600080fd5b61310660806140b3565b905060006131168482850161318b565b600083015250602061312a8482850161318b565b602083015250604061313e84828501612ebe565b604083015250606082015167ffffffffffffffff81111561315e57600080fd5b61316a84828501613096565b60608301525092915050565b60008135905061318581614343565b92915050565b60008151905061319a81614343565b92915050565b6000602082840312156131b257600080fd5b60006131c084828501612ea9565b91505092915050565b6000602082840312156131db57600080fd5b60006131e984828501612ed3565b91505092915050565b6000806040838503121561320557600080fd5b600061321385828601612ed3565b92505060206132248582860161318b565b9150509250929050565b6000806040838503121561324157600080fd5b600061324f85828601612ea9565b925050602061326085828601612ea9565b9150509250929050565b60008060008060008060c0878903121561328357600080fd5b600061329189828a01612ea9565b96505060206132a289828a01612ea9565b955050604087013567ffffffffffffffff8111156132bf57600080fd5b6132cb89828a01612f6b565b945050606087013567ffffffffffffffff8111156132e857600080fd5b6132f489828a01612f6b565b935050608061330589828a01612fee565b92505060a087013567ffffffffffffffff81111561332257600080fd5b61332e89828a01613042565b9150509295509295509295565b600080600080600060a0868803121561335357600080fd5b600061336188828901612ea9565b955050602061337288828901612ea9565b945050604086013567ffffffffffffffff81111561338f57600080fd5b61339b88828901612f6b565b935050606086013567ffffffffffffffff8111156133b857600080fd5b6133c488828901612f6b565b925050608086013567ffffffffffffffff8111156133e157600080fd5b6133ed88828901613042565b9150509295509295909350565b600080600080600060a0868803121561341257600080fd5b600061342088828901612ea9565b955050602061343188828901612ea9565b945050604061344288828901612fee565b935050606061345388828901612fee565b925050608086013567ffffffffffffffff81111561347057600080fd5b61347c88828901613042565b9150509295509295909350565b60008060008060008060c087890312156134a257600080fd5b60006134b089828a01612ea9565b96505060206134c189828a01612ea9565b95505060406134d289828a01613176565b94505060606134e389828a01613176565b93505060806134f489828a01612fee565b92505060a087013567ffffffffffffffff81111561351157600080fd5b61351d89828a01613042565b9150509295509295509295565b600080600080600060a0868803121561354257600080fd5b600061355088828901612ea9565b955050602061356188828901612ea9565b945050604061357288828901613176565b935050606061358388828901613176565b925050608086013567ffffffffffffffff8111156135a057600080fd5b6135ac88828901613042565b9150509295509295909350565b600080604083850312156135cc57600080fd5b60006135da85828601612ea9565b92505060206135eb85828601612fee565b9150509250929050565b6000806000806080858703121561360b57600080fd5b600061361987828801612ea9565b945050602061362a87828801613018565b935050604085013567ffffffffffffffff81111561364757600080fd5b61365387828801613042565b925050606085013567ffffffffffffffff81111561367057600080fd5b61367c87828801613042565b91505092959194509250565b6000806040838503121561369b57600080fd5b60006136a985828601612ea9565b92505060206136ba85828601613176565b9150509250929050565b600080604083850312156136d757600080fd5b600083013567ffffffffffffffff8111156136f157600080fd5b6136fd85828601612ee8565b925050602083013567ffffffffffffffff81111561371a57600080fd5b61372685828601612f6b565b9150509250929050565b60006020828403121561374257600080fd5b600061375084828501613003565b91505092915050565b60006020828403121561376b57600080fd5b60006137798482850161302d565b91505092915050565b6000806040838503121561379557600080fd5b600083015167ffffffffffffffff8111156137af57600080fd5b6137bb85828601613096565b925050602083015167ffffffffffffffff8111156137d857600080fd5b6137e485828601613096565b9150509250929050565b60006020828403121561380057600080fd5b600082015167ffffffffffffffff81111561381a57600080fd5b613826848285016130ea565b91505092915050565b6000806040838503121561384257600080fd5b600083015167ffffffffffffffff81111561385c57600080fd5b613868858286016130ea565b925050602083015167ffffffffffffffff81111561388557600080fd5b61389185828601613096565b9150509250929050565b6000602082840312156138ad57600080fd5b60006138bb84828501613176565b91505092915050565b600080604083850312156138d757600080fd5b60006138e585828601613176565b92505060206138f685828601613176565b9150509250929050565b600061390c8383613d05565b60208301905092915050565b60006139248383613d23565b60208301905092915050565b613939816141e8565b82525050565b600061394a8261417c565b613954818561419f565b935061395f8361416c565b8060005b838110156139905781516139778882613900565b975061398283614192565b925050600181019050613963565b5085935050505092915050565b60006139a88261417c565b6139b281856141b0565b93506139bd8361416c565b8060005b838110156139ee5781516139d58882613918565b97506139e083614192565b9250506001810190506139c1565b5085935050505092915050565b613a048161420c565b82525050565b613a1381614218565b82525050565b613a2a613a2582614218565b6142ba565b82525050565b6000613a3b82614187565b613a4581856141cc565b9350613a55818560208601614287565b80840191505092915050565b6000613a6e603f836141d7565b91507f455243313135354d6574615061636b656442616c616e6365235f7472616e736660008301527f65724761734665653a2045524332305f5452414e534645525f4641494c4544006020830152604082019050919050565b6000613ad4603c836141d7565b91507f455243313135354d6574615061636b656442616c616e6365235f7369676e617460008301527f75726556616c69646174696f6e3a20494e56414c49445f4e4f4e4345000000006020830152604082019050919050565b6000613b3a6040836141d7565b91507f455243313135354d6574615061636b656442616c616e6365235f7369676e617460008301527f75726556616c69646174696f6e3a20494e56414c49445f5349474e41545552456020830152604082019050919050565b6000613ba06040836141d7565b91507f455243313135354d6574615061636b656442616c616e6365236d65746153616660008301527f655472616e7366657246726f6d3a20494e56414c49445f524543495049454e546020830152604082019050919050565b6000613c066045836141d7565b91507f455243313135354d6574615061636b656442616c616e6365236d65746153616660008301527f6542617463685472616e7366657246726f6d3a20494e56414c49445f5245434960208301527f5049454e540000000000000000000000000000000000000000000000000000006040830152606082019050919050565b6000613c926000836141bb565b9150600082019050919050565b6000613cac603b836141d7565b91507f455243313135354d6574615061636b656442616c616e6365235f7472616e736660008301527f65724761734665653a20554e535550504f525445445f544f4b454e00000000006020830152604082019050919050565b613d0e8161426e565b82525050565b613d1d8161426e565b82525050565b613d2c8161426e565b82525050565b613d43613d3e8261426e565b6142c4565b82525050565b6000613d55828461399d565b915081905092915050565b6000613d6c8286613a30565b9150613d788285613d32565b602082019150613d888284613a19565b602082019150819050949350505050565b6000613da58286613a30565b9150613db18285613d32565b602082019150613dc18284613a30565b9150819050949350505050565b6000606082019050613de36000830186613930565b613df06020830185613930565b613dfd6040830184613d14565b949350505050565b600060a082019050613e1a6000830187613930565b613e276020830186613930565b613e346040830185613d14565b613e416060830184613d14565b8181036080830152613e5281613c85565b905095945050505050565b60006020820190508181036000830152613e77818461393f565b905092915050565b6000602082019050613e9460008301846139fb565b92915050565b600060c082019050613eaf6000830189613a0a565b613ebc6020830188613930565b613ec96040830187613930565b613ed66060830186613a0a565b613ee36080830185613a0a565b613ef060a0830184613d14565b979650505050505050565b600060a082019050613f106000830188613a0a565b613f1d6020830187613930565b613f2a6040830186613930565b613f376060830185613d14565b613f446080830184613d14565b9695505050505050565b600060c082019050613f636000830189613a0a565b613f706020830188613930565b613f7d6040830187613930565b613f8a6060830186613d14565b613f976080830185613d14565b613fa460a0830184613d14565b979650505050505050565b60006020820190508181036000830152613fc881613a61565b9050919050565b60006020820190508181036000830152613fe881613ac7565b9050919050565b6000602082019050818103600083015261400881613b2d565b9050919050565b6000602082019050818103600083015261402881613b93565b9050919050565b6000602082019050818103600083015261404881613bf9565b9050919050565b6000602082019050818103600083015261406881613c9f565b9050919050565b60006020820190506140846000830184613d14565b92915050565b600060408201905061409f6000830185613d14565b6140ac6020830184613d14565b9392505050565b6000604051905081810181811067ffffffffffffffff821117156140da576140d96142ce565b5b8060405250919050565b600067ffffffffffffffff8211156140ff576140fe6142ce565b5b602082029050602081019050919050565b600067ffffffffffffffff82111561412b5761412a6142ce565b5b602082029050602081019050919050565b600067ffffffffffffffff821115614157576141566142ce565b5b601f19601f8301169050602081019050919050565b6000819050602082019050919050565b600081519050919050565b600081519050919050565b6000602082019050919050565b600082825260208201905092915050565b600081905092915050565b600082825260208201905092915050565b600081905092915050565b600082825260208201905092915050565b60006141f38261424e565b9050919050565b60006142058261424e565b9050919050565b60008115159050919050565b6000819050919050565b60007fffffffff0000000000000000000000000000000000000000000000000000000082169050919050565b600073ffffffffffffffffffffffffffffffffffffffff82169050919050565b6000819050919050565b82818337600083830152505050565b60005b838110156142a557808201518184015260208101905061428a565b838111156142b4576000848401525b50505050565b6000819050919050565b6000819050919050565bfe5b6142d9816141e8565b81146142e457600080fd5b50565b6142f0816141fa565b81146142fb57600080fd5b50565b6143078161420c565b811461431257600080fd5b50565b61431e81614218565b811461432957600080fd5b50565b61433581614222565b811461434057600080fd5b50565b61434c8161426e565b811461435757600080fd5b5056fe455243313135355061636b656442616c616e63652362616c616e63654f6642617463683a20494e56414c49445f41525241595f4c454e475448455243313135355061636b656442616c616e6365237361666542617463685472616e7366657246726f6d3a20494e56414c49445f524543495049454e544c6962427974657323706f704c617374427974653a20475245415445525f5448414e5f5a45524f5f4c454e4754485f5245515549524544455243313135355061636b656442616c616e6365235f7669657755706461746542696e56616c75653a20554e444552464c4f575369676e617475726556616c696461746f7223697356616c69645369676e61747572653a20554e535550504f525445445f5349474e4154555245455243313135355061636b656442616c616e636523736166655472616e7366657246726f6d3a20494e56414c49445f4f50455241544f525369676e617475726556616c696461746f7223697356616c69645369676e61747572653a20494c4c4547414c5f5349474e4154555245455243313135355061636b656442616c616e6365235f7361666542617463685472616e7366657246726f6d3a20494e56414c49445f4152524159535f4c454e475448455243313135355061636b656442616c616e6365235f63616c6c6f6e45524331313535426174636852656365697665643a20494e56414c49445f4f4e5f524543454956455f4d4553534147455369676e617475726556616c696461746f7223697356616c69645369676e61747572653a204c454e4754485f39375f5245515549524544455243313135355061636b656442616c616e6365237361666542617463685472616e7366657246726f6d3a20494e56414c49445f4f50455241544f52455243313135355061636b656442616c616e6365235f7361666542617463685472616e7366657246726f6d3a20554e444552464c4f575369676e617475726556616c696461746f7223697356616c69645369676e61747572653a20494e56414c49445f5349474e4552455243313135355061636b656442616c616e6365235f63616c6c6f6e4552433131353552656365697665643a20494e56414c49445f4f4e5f524543454956455f4d4553534147455369676e617475726556616c696461746f7223697356616c69645369676e61747572653a204c454e4754485f475245415445525f5448414e5f305f5245515549524544455243313135355061636b656442616c616e636523736166655472616e7366657246726f6d3a20494e56414c49445f524543495049454e544c696242797465732372656164427974657333323a20475245415445525f4f525f455155414c5f544f5f33325f4c454e4754485f5245515549524544455243313135355061636b656442616c616e6365235f7669657755706461746542696e56616c75653a20494e56414c49445f42494e5f57524954455f4f5045524154494f4e455243313135355061636b656442616c616e6365235f7669657755706461746542696e56616c75653a204f564552464c4f57a26469706673582212202aad1de313dfb4763edd7b24484fad55759fe258c412732de171a4879bf1278d64736f6c63430007040033",
  "immutableReferences": {},
  "source": "// SPDX-License-Identifier: Apache-2.0\npragma solidity 0.7.4;\npragma experimental ABIEncoderV2;\n\nimport \"./ERC1155PackedBalance.sol\";\nimport \"../../interfaces/IERC20.sol\";\nimport \"../../interfaces/IERC1155.sol\";\nimport \"../../utils/LibBytes.sol\";\nimport \"../../utils/SignatureValidator.sol\";\n\n\n/**\n * @dev ERC-1155 with native metatransaction methods. These additional functions allow users\n *      to presign function calls and allow third parties to execute these on their behalf\n *\n * Note: This contract is identical to the ERC1155Meta.sol contract,\n *       except for the ERC1155PackedBalance parent contract.\n */\ncontract ERC1155MetaPackedBalance is ERC1155PackedBalance, SignatureValidator {\n  using LibBytes for bytes;\n\n  /***********************************|\n  |       Variables and Structs       |\n  |__________________________________*/\n\n  /**\n   * Gas Receipt\n   *   feeTokenData : (bool, address, ?unit256)\n   *     1st element should be the address of the token\n   *     2nd argument (if ERC-1155) should be the ID of the token\n   *     Last element should be a 0x0 if ERC-20 and 0x1 for ERC-1155\n   */\n  struct GasReceipt {\n    uint256 gasFee;           // Fixed cost for the tx\n    uint256 gasLimitCallback; // Maximum amount of gas the callback in transfer functions can use\n    address feeRecipient;     // Address to send payment to\n    bytes feeTokenData;       // Data for token to pay for gas\n  }\n\n  // Which token standard is used to pay gas fee\n  enum FeeTokenType {\n    ERC1155,    // 0x00, ERC-1155 token - DEFAULT\n    ERC20,      // 0x01, ERC-20 token\n    NTypes      // 0x02, number of signature types. Always leave at end.\n  }\n\n  // Signature nonce per address\n  mapping (address => uint256) internal nonces;\n\n\n  /***********************************|\n  |               Events              |\n  |__________________________________*/\n\n  event NonceChange(address indexed signer, uint256 newNonce);\n\n\n  /****************************************|\n  |     Public Meta Transfer Functions     |\n  |_______________________________________*/\n\n  /**\n   * @notice Allows anyone with a valid signature to transfer _amount amount of a token _id on the bahalf of _from\n   * @param _from     Source address\n   * @param _to       Target address\n   * @param _id       ID of the token type\n   * @param _amount   Transfered amount\n   * @param _isGasFee Whether gas is reimbursed to executor or not\n   * @param _data     Encodes a meta transfer indicator, signature, gas payment receipt and extra transfer data\n   *   _data should be encoded as (\n   *   (bytes32 r, bytes32 s, uint8 v, uint256 nonce, SignatureType sigType),\n   *   (GasReceipt g, ?bytes transferData)\n   * )\n   *   i.e. high level encoding should be (bytes, bytes), where the latter bytes array is a nested bytes array\n   */\n  function metaSafeTransferFrom(\n    address _from,\n    address _to,\n    uint256 _id,\n    uint256 _amount,\n    bool _isGasFee,\n    bytes memory _data)\n    public\n  {\n    require(_to != address(0), \"ERC1155MetaPackedBalance#metaSafeTransferFrom: INVALID_RECIPIENT\");\n\n    // Initializing\n    bytes memory transferData;\n    GasReceipt memory gasReceipt;\n\n    // Verify signature and extract the signed data\n    bytes memory signedData = _signatureValidation(\n      _from,\n      _data,\n      abi.encode(\n        META_TX_TYPEHASH,\n        _from, // Address as uint256\n        _to,   // Address as uint256\n        _id,\n        _amount,\n        _isGasFee ? uint256(1) : uint256(0)  // Boolean as uint256\n      )\n    );\n\n    // Transfer asset\n    _safeTransferFrom(_from, _to, _id, _amount);\n\n    // If Gas is being reimbursed\n    if (_isGasFee) {\n      (gasReceipt, transferData) = abi.decode(signedData, (GasReceipt, bytes));\n\n      // We need to somewhat protect relayers against gas griefing attacks in recipient contract.\n      // Hence we only pass the gasLimit to the recipient such that the relayer knows the griefing\n      // limit. Nothing can prevent the receiver to revert the transaction as close to the gasLimit as\n      // possible, but the relayer can now only accept meta-transaction gasLimit within a certain range.\n      _callonERC1155Received(_from, _to, _id, _amount, gasReceipt.gasLimitCallback, transferData);\n\n      // Transfer gas cost\n      _transferGasFee(_from, gasReceipt);\n\n    } else {\n      _callonERC1155Received(_from, _to, _id, _amount, gasleft(), signedData);\n    }\n  }\n\n  /**\n   * @notice Allows anyone with a valid signature to transfer multiple types of tokens on the bahalf of _from\n   * @param _from     Source addresses\n   * @param _to       Target addresses\n   * @param _ids      IDs of each token type\n   * @param _amounts  Transfer amounts per token type\n   * @param _isGasFee Whether gas is reimbursed to executor or not\n   * @param _data     Encodes a meta transfer indicator, signature, gas payment receipt and extra transfer data\n   *   _data should be encoded as (\n   *   (bytes32 r, bytes32 s, uint8 v, uint256 nonce, SignatureType sigType),\n   *   (GasReceipt g, ?bytes transferData)\n   * )\n   *   i.e. high level encoding should be (bytes, bytes), where the latter bytes array is a nested bytes array\n   */\n  function metaSafeBatchTransferFrom(\n    address _from,\n    address _to,\n    uint256[] memory _ids,\n    uint256[] memory _amounts,\n    bool _isGasFee,\n    bytes memory _data)\n    public\n  {\n    require(_to != address(0), \"ERC1155MetaPackedBalance#metaSafeBatchTransferFrom: INVALID_RECIPIENT\");\n\n    // Initializing\n    bytes memory transferData;\n    GasReceipt memory gasReceipt;\n\n    // Verify signature and extract the signed data\n    bytes memory signedData = _signatureValidation(\n      _from,\n      _data,\n      abi.encode(\n        META_BATCH_TX_TYPEHASH,\n        _from, // Address as uint256\n        _to,   // Address as uint256\n        keccak256(abi.encodePacked(_ids)),\n        keccak256(abi.encodePacked(_amounts)),\n        _isGasFee ? uint256(1) : uint256(0)  // Boolean as uint256\n      )\n    );\n\n    // Transfer assets\n    _safeBatchTransferFrom(_from, _to, _ids, _amounts);\n\n    // If gas fee being reimbursed\n    if (_isGasFee) {\n      (gasReceipt, transferData) = abi.decode(signedData, (GasReceipt, bytes));\n\n      // We need to somewhat protect relayers against gas griefing attacks in recipient contract.\n      // Hence we only pass the gasLimit to the recipient such that the relayer knows the griefing\n      // limit. Nothing can prevent the receiver to revert the transaction as close to the gasLimit as\n      // possible, but the relayer can now only accept meta-transaction gasLimit within a certain range.\n      _callonERC1155BatchReceived(_from, _to, _ids, _amounts, gasReceipt.gasLimitCallback, transferData);\n\n      // Handle gas reimbursement\n      _transferGasFee(_from, gasReceipt);\n\n    } else {\n      _callonERC1155BatchReceived(_from, _to, _ids, _amounts, gasleft(), signedData);\n    }\n  }\n\n\n  /***********************************|\n  |         Operator Functions        |\n  |__________________________________*/\n\n  /**\n   * @notice Approve the passed address to spend on behalf of _from if valid signature is provided\n   * @param _owner     Address that wants to set operator status  _spender\n   * @param _operator  Address to add to the set of authorized operators\n   * @param _approved  True if the operator is approved, false to revoke approval\n   * @param _isGasFee  Whether gas will be reimbursed or not, with vlid signature\n   * @param _data      Encodes signature and gas payment receipt\n   *   _data should be encoded as (\n   *     (bytes32 r, bytes32 s, uint8 v, uint256 nonce, SignatureType sigType),\n   *     (GasReceipt g)\n   *   )\n   *   i.e. high level encoding should be (bytes, bytes), where the latter bytes array is a nested bytes array\n   */\n  function metaSetApprovalForAll(\n    address _owner,\n    address _operator,\n    bool _approved,\n    bool _isGasFee,\n    bytes memory _data)\n    public\n  {\n    // Verify signature and extract the signed data\n    bytes memory signedData = _signatureValidation(\n      _owner,\n      _data,\n      abi.encode(\n        META_APPROVAL_TYPEHASH,\n        _owner,                              // Address as uint256\n        _operator,                           // Address as uint256\n        _approved ? uint256(1) : uint256(0), // Boolean as uint256\n        _isGasFee ? uint256(1) : uint256(0)  // Boolean as uint256\n      )\n    );\n\n    // Update operator status\n    operators[_owner][_operator] = _approved;\n\n    // Emit event\n    emit ApprovalForAll(_owner, _operator, _approved);\n\n    // Handle gas reimbursement\n    if (_isGasFee) {\n      GasReceipt memory gasReceipt = abi.decode(signedData, (GasReceipt));\n      _transferGasFee(_owner, gasReceipt);\n    }\n  }\n\n\n\n  /****************************************|\n  |      Signature Validation Functions     |\n  |_______________________________________*/\n\n  // keccak256(\n  //   \"metaSafeTransferFrom(address,address,uint256,uint256,bool,bytes)\"\n  // );\n  bytes32 internal constant META_TX_TYPEHASH = 0xce0b514b3931bdbe4d5d44e4f035afe7113767b7db71949271f6a62d9c60f558;\n\n  // keccak256(\n  //   \"metaSafeBatchTransferFrom(address,address,uint256[],uint256[],bool,bytes)\"\n  // );\n  bytes32 internal constant META_BATCH_TX_TYPEHASH = 0xa3d4926e8cf8fe8e020cd29f514c256bc2eec62aa2337e415f1a33a4828af5a0;\n\n  // keccak256(\n  //   \"metaSetApprovalForAll(address,address,bool,bool,bytes)\"\n  // );\n  bytes32 internal constant META_APPROVAL_TYPEHASH = 0xf5d4c820494c8595de274c7ff619bead38aac4fbc3d143b5bf956aa4b84fa524;\n\n  /**\n   * @notice Verifies signatures for this contract\n   * @param _signer     Address of signer\n   * @param _sigData    Encodes signature, gas payment receipt and transfer data (if any)\n   * @param _encMembers Encoded EIP-712 type members (except nonce and _data), all need to be 32 bytes size\n   * @dev _data should be encoded as (\n   *   (bytes32 r, bytes32 s, uint8 v, uint256 nonce, SignatureType sigType),\n   *   (GasReceipt g, ?bytes transferData)\n   * )\n   *   i.e. high level encoding should be (bytes, bytes), where the latter bytes array is a nested bytes array\n   * @dev A valid nonce is a nonce that is within 100 value from the current nonce\n   */\n  function _signatureValidation(\n    address _signer,\n    bytes memory _sigData,\n    bytes memory _encMembers)\n    internal returns (bytes memory signedData)\n  {\n    bytes memory sig;\n\n    // Get signature and data to sign\n    (sig, signedData) = abi.decode(_sigData, (bytes, bytes));\n\n    // Get current nonce and nonce used for signature\n    uint256 currentNonce = nonces[_signer];        // Lowest valid nonce for signer\n    uint256 nonce = uint256(sig.readBytes32(65));  // Nonce passed in the signature object\n\n    // Verify if nonce is valid\n    require(\n      (nonce >= currentNonce) && (nonce < (currentNonce + 100)),\n      \"ERC1155MetaPackedBalance#_signatureValidation: INVALID_NONCE\"\n    );\n\n    // Take hash of bytes arrays\n    bytes32 hash = hashEIP712Message(keccak256(abi.encodePacked(_encMembers, nonce, keccak256(signedData))));\n\n    // Complete data to pass to signer verifier\n    bytes memory fullData = abi.encodePacked(_encMembers, nonce, signedData);\n\n    //Update signature nonce\n    nonces[_signer] = nonce + 1;\n    emit NonceChange(_signer, nonce + 1);\n\n    // Verify if _from is the signer\n    require(isValidSignature(_signer, hash, fullData, sig), \"ERC1155MetaPackedBalance#_signatureValidation: INVALID_SIGNATURE\");\n    return signedData;\n  }\n\n  /**\n   * @notice Returns the current nonce associated with a given address\n   * @param _signer Address to query signature nonce for\n   */\n  function getNonce(address _signer)\n    public view returns (uint256 nonce)\n  {\n    return nonces[_signer];\n  }\n\n\n  /***********************************|\n  |    Gas Reimbursement Functions    |\n  |__________________________________*/\n\n  /**\n   * @notice Will reimburse tx.origin or fee recipient for the gas spent execution a transaction\n   *         Can reimbuse in any ERC-20 or ERC-1155 token\n   * @param _from  Address from which the payment will be made from\n   * @param _g     GasReceipt object that contains gas reimbursement information\n   */\n  function _transferGasFee(address _from, GasReceipt memory _g)\n      internal\n  {\n    // Pop last byte to get token fee type\n    uint8 feeTokenTypeRaw = uint8(_g.feeTokenData.popLastByte());\n\n    // Ensure valid fee token type\n    require(\n      feeTokenTypeRaw < uint8(FeeTokenType.NTypes),\n      \"ERC1155MetaPackedBalance#_transferGasFee: UNSUPPORTED_TOKEN\"\n    );\n\n    // Convert to FeeTokenType corresponding value\n    FeeTokenType feeTokenType = FeeTokenType(feeTokenTypeRaw);\n\n    // Declarations\n    address tokenAddress;\n    address feeRecipient;\n    uint256 tokenID;\n    uint256 fee = _g.gasFee;\n\n    // If receiver is 0x0, then anyone can claim, otherwise, refund addresse provided\n    feeRecipient = _g.feeRecipient == address(0) ? msg.sender : _g.feeRecipient;\n\n    // Fee token is ERC1155\n    if (feeTokenType == FeeTokenType.ERC1155) {\n      (tokenAddress, tokenID) = abi.decode(_g.feeTokenData, (address, uint256));\n\n      // Fee is paid from this ERC1155 contract\n      if (tokenAddress == address(this)) {\n        _safeTransferFrom(_from, feeRecipient, tokenID, fee);\n\n        // No need to protect against griefing since recipient (if contract) is most likely owned by the relayer\n        _callonERC1155Received(_from, feeRecipient, tokenID, gasleft(), fee, \"\");\n\n      // Fee is paid from another ERC-1155 contract\n      } else {\n        IERC1155(tokenAddress).safeTransferFrom(_from, feeRecipient, tokenID, fee, \"\");\n      }\n\n    // Fee token is ERC20\n    } else {\n      tokenAddress = abi.decode(_g.feeTokenData, (address));\n      require(\n        IERC20(tokenAddress).transferFrom(_from, feeRecipient, fee),\n        \"ERC1155MetaPackedBalance#_transferGasFee: ERC20_TRANSFER_FAILED\"\n      );\n    }\n  }\n}\n",
  "sourcePath": "D:/Apps/hashable-art-dapp/contracts/tokens/ERC1155PackedBalance/ERC1155MetaPackedBalance.sol",
  "compiler": {
    "name": "solc",
    "version": "0.7.4+commit.3f05b770.Emscripten.clang"
  },
  "schemaVersion": "3.3.4",
  "updatedAt": "2021-04-09T00:53:41.895Z",
  "devdoc": {
    "details": "ERC-1155 with native metatransaction methods. These additional functions allow users      to presign function calls and allow third parties to execute these on their behalf Note: This contract is identical to the ERC1155Meta.sol contract,       except for the ERC1155PackedBalance parent contract.",
    "kind": "dev",
    "methods": {
      "balanceOf(address,uint256)": {
        "params": {
          "_id": "ID of the Token",
          "_owner": "The address of the token holder"
        },
        "returns": {
          "_0": "The _owner's balance of the Token type requested"
        }
      },
      "balanceOfBatch(address[],uint256[])": {
        "params": {
          "_ids": "ID of the Tokens (sorted ids will lead to less gas usage",
          "_owners": "The addresses of the token holders (sorted owners will lead to less gas usage)"
        },
        "returns": {
          "_0": "The _owner's balance of the Token types requested (i.e. balance for each (owner, id) pair)"
        }
      },
      "getIDBinIndex(uint256)": {
        "params": {
          "_id": "Token id"
        },
        "returns": {
          "bin": "index (Bin number, ID\"s index within that bin)"
        }
      },
      "getNonce(address)": {
        "params": {
          "_signer": "Address to query signature nonce for"
        }
      },
      "getValueInBin(uint256,uint256)": {
        "params": {
          "_binValues": "uint256 containing the balances of IDS_PER_UINT256 ids",
          "_index": "Index at which to retrieve amount"
        },
        "returns": {
          "_0": "amount at given _index in _bin"
        }
      },
      "isApprovedForAll(address,address)": {
        "params": {
          "_operator": "Address of authorized operator",
          "_owner": "The owner of the Tokens"
        },
        "returns": {
          "isOperator": "True if the operator is approved, false if not"
        }
      },
      "isValidSignature(address,bytes32,bytes,bytes)": {
        "details": "Verifies that a hash has been signed by the given signer.",
        "params": {
          "_data": "Full EIP-712 data structure that was hashed and signed",
          "_hash": "Hash of the EIP-712 encoded data",
          "_sig": "Proof that the hash has been signed by signer.      For non wallet signatures, _sig is expected to be an array tightly encoded as      (bytes32 r, bytes32 s, uint8 v, uint256 nonce, SignatureType sigType)",
          "_signerAddress": "Address that should have signed the given hash."
        },
        "returns": {
          "isValid": "True if the address recovered from the provided signature matches the input signer address."
        }
      },
      "metaSafeBatchTransferFrom(address,address,uint256[],uint256[],bool,bytes)": {
        "params": {
          "_amounts": "Transfer amounts per token type",
          "_data": "Encodes a meta transfer indicator, signature, gas payment receipt and extra transfer data   _data should be encoded as (   (bytes32 r, bytes32 s, uint8 v, uint256 nonce, SignatureType sigType),   (GasReceipt g, ?bytes transferData) )   i.e. high level encoding should be (bytes, bytes), where the latter bytes array is a nested bytes array",
          "_from": "Source addresses",
          "_ids": "IDs of each token type",
          "_isGasFee": "Whether gas is reimbursed to executor or not",
          "_to": "Target addresses"
        }
      },
      "metaSafeTransferFrom(address,address,uint256,uint256,bool,bytes)": {
        "params": {
          "_amount": "Transfered amount",
          "_data": "Encodes a meta transfer indicator, signature, gas payment receipt and extra transfer data   _data should be encoded as (   (bytes32 r, bytes32 s, uint8 v, uint256 nonce, SignatureType sigType),   (GasReceipt g, ?bytes transferData) )   i.e. high level encoding should be (bytes, bytes), where the latter bytes array is a nested bytes array",
          "_from": "Source address",
          "_id": "ID of the token type",
          "_isGasFee": "Whether gas is reimbursed to executor or not",
          "_to": "Target address"
        }
      },
      "metaSetApprovalForAll(address,address,bool,bool,bytes)": {
        "params": {
          "_approved": "True if the operator is approved, false to revoke approval",
          "_data": "Encodes signature and gas payment receipt   _data should be encoded as (     (bytes32 r, bytes32 s, uint8 v, uint256 nonce, SignatureType sigType),     (GasReceipt g)   )   i.e. high level encoding should be (bytes, bytes), where the latter bytes array is a nested bytes array",
          "_isGasFee": "Whether gas will be reimbursed or not, with vlid signature",
          "_operator": "Address to add to the set of authorized operators",
          "_owner": "Address that wants to set operator status  _spender"
        }
      },
      "safeBatchTransferFrom(address,address,uint256[],uint256[],bytes)": {
        "details": "Arrays should be sorted so that all ids in a same storage slot are adjacent (more efficient)",
        "params": {
          "_amounts": "Transfer amounts per token type",
          "_data": "Additional data with no specified format, sent in call to `_to`",
          "_from": "Source addresses",
          "_ids": "IDs of each token type",
          "_to": "Target addresses"
        }
      },
      "safeTransferFrom(address,address,uint256,uint256,bytes)": {
        "params": {
          "_amount": "Transfered amount",
          "_data": "Additional data with no specified format, sent in call to `_to`",
          "_from": "Source address",
          "_id": "ID of the token type",
          "_to": "Target address"
        }
      },
      "setApprovalForAll(address,bool)": {
        "params": {
          "_approved": "True if the operator is approved, false to revoke approval",
          "_operator": "Address to add to the set of authorized operators"
        }
      },
      "supportsInterface(bytes4)": {
        "params": {
          "_interfaceID": "The interface identifier, as specified in ERC-165"
        },
        "returns": {
          "_0": "`true` if the contract implements `_interfaceID` and"
        }
      }
    },
    "version": 1
  },
  "userdoc": {
    "kind": "user",
    "methods": {
      "balanceOf(address,uint256)": {
        "notice": "Get the balance of an account's Tokens"
      },
      "balanceOfBatch(address[],uint256[])": {
        "notice": "Get the balance of multiple account/token pairs"
      },
      "getIDBinIndex(uint256)": {
        "notice": "Return the bin number and index within that bin where ID is"
      },
      "getNonce(address)": {
        "notice": "Returns the current nonce associated with a given address"
      },
      "getValueInBin(uint256,uint256)": {
        "notice": "Return amount in _binValues at position _index"
      },
      "isApprovedForAll(address,address)": {
        "notice": "Queries the approval status of an operator for a given owner"
      },
      "metaSafeBatchTransferFrom(address,address,uint256[],uint256[],bool,bytes)": {
        "notice": "Allows anyone with a valid signature to transfer multiple types of tokens on the bahalf of _from"
      },
      "metaSafeTransferFrom(address,address,uint256,uint256,bool,bytes)": {
        "notice": "Allows anyone with a valid signature to transfer _amount amount of a token _id on the bahalf of _from"
      },
      "metaSetApprovalForAll(address,address,bool,bool,bytes)": {
        "notice": "Approve the passed address to spend on behalf of _from if valid signature is provided"
      },
      "safeBatchTransferFrom(address,address,uint256[],uint256[],bytes)": {
        "notice": "Send multiple types of Tokens from the _from address to the _to address (with safety call)"
      },
      "safeTransferFrom(address,address,uint256,uint256,bytes)": {
        "notice": "Transfers amount amount of an _id from the _from address to the _to address specified"
      },
      "setApprovalForAll(address,bool)": {
        "notice": "Enable or disable approval for a third party (\"operator\") to manage all of caller's tokens"
      },
      "supportsInterface(bytes4)": {
        "notice": "Query if a contract implements an interface"
      }
    },
    "version": 1
  }
}