{
  "contractName": "ERC1155MintBurnPackedBalance",
  "abi": [
    {
      "anonymous": false,
      "inputs": [
        {
          "indexed": true,
          "internalType": "address",
          "name": "_owner",
          "type": "address"
        },
        {
          "indexed": true,
          "internalType": "address",
          "name": "_operator",
          "type": "address"
        },
        {
          "indexed": false,
          "internalType": "bool",
          "name": "_approved",
          "type": "bool"
        }
      ],
      "name": "ApprovalForAll",
      "type": "event"
    },
    {
      "anonymous": false,
      "inputs": [
        {
          "indexed": true,
          "internalType": "address",
          "name": "_operator",
          "type": "address"
        },
        {
          "indexed": true,
          "internalType": "address",
          "name": "_from",
          "type": "address"
        },
        {
          "indexed": true,
          "internalType": "address",
          "name": "_to",
          "type": "address"
        },
        {
          "indexed": false,
          "internalType": "uint256[]",
          "name": "_ids",
          "type": "uint256[]"
        },
        {
          "indexed": false,
          "internalType": "uint256[]",
          "name": "_amounts",
          "type": "uint256[]"
        }
      ],
      "name": "TransferBatch",
      "type": "event"
    },
    {
      "anonymous": false,
      "inputs": [
        {
          "indexed": true,
          "internalType": "address",
          "name": "_operator",
          "type": "address"
        },
        {
          "indexed": true,
          "internalType": "address",
          "name": "_from",
          "type": "address"
        },
        {
          "indexed": true,
          "internalType": "address",
          "name": "_to",
          "type": "address"
        },
        {
          "indexed": false,
          "internalType": "uint256",
          "name": "_id",
          "type": "uint256"
        },
        {
          "indexed": false,
          "internalType": "uint256",
          "name": "_amount",
          "type": "uint256"
        }
      ],
      "name": "TransferSingle",
      "type": "event"
    },
    {
      "inputs": [
        {
          "internalType": "address",
          "name": "_owner",
          "type": "address"
        },
        {
          "internalType": "uint256",
          "name": "_id",
          "type": "uint256"
        }
      ],
      "name": "balanceOf",
      "outputs": [
        {
          "internalType": "uint256",
          "name": "",
          "type": "uint256"
        }
      ],
      "stateMutability": "view",
      "type": "function"
    },
    {
      "inputs": [
        {
          "internalType": "address[]",
          "name": "_owners",
          "type": "address[]"
        },
        {
          "internalType": "uint256[]",
          "name": "_ids",
          "type": "uint256[]"
        }
      ],
      "name": "balanceOfBatch",
      "outputs": [
        {
          "internalType": "uint256[]",
          "name": "",
          "type": "uint256[]"
        }
      ],
      "stateMutability": "view",
      "type": "function"
    },
    {
      "inputs": [
        {
          "internalType": "uint256",
          "name": "_id",
          "type": "uint256"
        }
      ],
      "name": "getIDBinIndex",
      "outputs": [
        {
          "internalType": "uint256",
          "name": "bin",
          "type": "uint256"
        },
        {
          "internalType": "uint256",
          "name": "index",
          "type": "uint256"
        }
      ],
      "stateMutability": "pure",
      "type": "function"
    },
    {
      "inputs": [
        {
          "internalType": "uint256",
          "name": "_binValues",
          "type": "uint256"
        },
        {
          "internalType": "uint256",
          "name": "_index",
          "type": "uint256"
        }
      ],
      "name": "getValueInBin",
      "outputs": [
        {
          "internalType": "uint256",
          "name": "",
          "type": "uint256"
        }
      ],
      "stateMutability": "pure",
      "type": "function"
    },
    {
      "inputs": [
        {
          "internalType": "address",
          "name": "_owner",
          "type": "address"
        },
        {
          "internalType": "address",
          "name": "_operator",
          "type": "address"
        }
      ],
      "name": "isApprovedForAll",
      "outputs": [
        {
          "internalType": "bool",
          "name": "isOperator",
          "type": "bool"
        }
      ],
      "stateMutability": "view",
      "type": "function"
    },
    {
      "inputs": [
        {
          "internalType": "address",
          "name": "_from",
          "type": "address"
        },
        {
          "internalType": "address",
          "name": "_to",
          "type": "address"
        },
        {
          "internalType": "uint256[]",
          "name": "_ids",
          "type": "uint256[]"
        },
        {
          "internalType": "uint256[]",
          "name": "_amounts",
          "type": "uint256[]"
        },
        {
          "internalType": "bytes",
          "name": "_data",
          "type": "bytes"
        }
      ],
      "name": "safeBatchTransferFrom",
      "outputs": [],
      "stateMutability": "nonpayable",
      "type": "function"
    },
    {
      "inputs": [
        {
          "internalType": "address",
          "name": "_from",
          "type": "address"
        },
        {
          "internalType": "address",
          "name": "_to",
          "type": "address"
        },
        {
          "internalType": "uint256",
          "name": "_id",
          "type": "uint256"
        },
        {
          "internalType": "uint256",
          "name": "_amount",
          "type": "uint256"
        },
        {
          "internalType": "bytes",
          "name": "_data",
          "type": "bytes"
        }
      ],
      "name": "safeTransferFrom",
      "outputs": [],
      "stateMutability": "nonpayable",
      "type": "function"
    },
    {
      "inputs": [
        {
          "internalType": "address",
          "name": "_operator",
          "type": "address"
        },
        {
          "internalType": "bool",
          "name": "_approved",
          "type": "bool"
        }
      ],
      "name": "setApprovalForAll",
      "outputs": [],
      "stateMutability": "nonpayable",
      "type": "function"
    },
    {
      "inputs": [
        {
          "internalType": "bytes4",
          "name": "_interfaceID",
          "type": "bytes4"
        }
      ],
      "name": "supportsInterface",
      "outputs": [
        {
          "internalType": "bool",
          "name": "",
          "type": "bool"
        }
      ],
      "stateMutability": "pure",
      "type": "function"
    }
  ],
  "bytecode": "0x608060405234801561001057600080fd5b50612172806100206000396000f3fe608060405234801561001057600080fd5b50600436106100925760003560e01c8063a22cb46511610066578063a22cb46514610520578063db90e83c14610570578063e985e9c5146105b9578063eaec5f8114610633578063f242432a1461067f57610092565b8062fdd58e1461009757806301ffc9a7146100f95780632eb2c2d61461015c5780634e1273f41461037f575b600080fd5b6100e3600480360360408110156100ad57600080fd5b81019080803573ffffffffffffffffffffffffffffffffffffffff1690602001909291908035906020019092919050505061078e565b6040518082815260200191505060405180910390f35b6101446004803603602081101561010f57600080fd5b8101908080357bffffffffffffffffffffffffffffffffffffffffffffffffffffffff19169060200190929190505050610807565b60405180821515815260200191505060405180910390f35b61037d600480360360a081101561017257600080fd5b81019080803573ffffffffffffffffffffffffffffffffffffffff169060200190929190803573ffffffffffffffffffffffffffffffffffffffff169060200190929190803590602001906401000000008111156101cf57600080fd5b8201836020820111156101e157600080fd5b8035906020019184602083028401116401000000008311171561020357600080fd5b919080806020026020016040519081016040528093929190818152602001838360200280828437600081840152601f19601f8201169050808301925050505050505091929192908035906020019064010000000081111561026357600080fd5b82018360208201111561027557600080fd5b8035906020019184602083028401116401000000008311171561029757600080fd5b919080806020026020016040519081016040528093929190818152602001838360200280828437600081840152601f19601f820116905080830192505050505050509192919290803590602001906401000000008111156102f757600080fd5b82018360208201111561030957600080fd5b8035906020019184600183028401116401000000008311171561032b57600080fd5b91908080601f016020809104026020016040519081016040528093929190818152602001838380828437600081840152601f19601f820116905080830192505050505050509192919290505050610889565b005b6104c96004803603604081101561039557600080fd5b81019080803590602001906401000000008111156103b257600080fd5b8201836020820111156103c457600080fd5b803590602001918460208302840111640100000000831117156103e657600080fd5b919080806020026020016040519081016040528093929190818152602001838360200280828437600081840152601f19601f8201169050808301925050505050505091929192908035906020019064010000000081111561044657600080fd5b82018360208201111561045857600080fd5b8035906020019184602083028401116401000000008311171561047a57600080fd5b919080806020026020016040519081016040528093929190818152602001838360200280828437600081840152601f19601f8201169050808301925050505050505091929192905050506109c5565b6040518080602001828103825283818151815260200191508051906020019060200280838360005b8381101561050c5780820151818401526020810190506104f1565b505050509050019250505060405180910390f35b61056e6004803603604081101561053657600080fd5b81019080803573ffffffffffffffffffffffffffffffffffffffff169060200190929190803515159060200190929190505050610c69565b005b61059c6004803603602081101561058657600080fd5b8101908080359060200190929190505050610d68565b604051808381526020018281526020019250505060405180910390f35b61061b600480360360408110156105cf57600080fd5b81019080803573ffffffffffffffffffffffffffffffffffffffff169060200190929190803573ffffffffffffffffffffffffffffffffffffffff169060200190929190505050610da0565b60405180821515815260200191505060405180910390f35b6106696004803603604081101561064957600080fd5b810190808035906020019092919080359060200190929190505050610e34565b6040518082815260200191505060405180910390f35b61078c600480360360a081101561069557600080fd5b81019080803573ffffffffffffffffffffffffffffffffffffffff169060200190929190803573ffffffffffffffffffffffffffffffffffffffff16906020019092919080359060200190929190803590602001909291908035906020019064010000000081111561070657600080fd5b82018360208201111561071857600080fd5b8035906020019184600183028401116401000000008311171561073a57600080fd5b91908080601f016020809104026020016040519081016040528093929190818152602001838380828437600081840152601f19601f820116905080830192505050505050509192919290505050610e5a565b005b600080600061079c84610d68565b80925081935050506107fd6000808773ffffffffffffffffffffffffffffffffffffffff1673ffffffffffffffffffffffffffffffffffffffff16815260200190815260200160002060008481526020019081526020016000205482610e34565b9250505092915050565b60007fd9b67a26000000000000000000000000000000000000000000000000000000007bffffffffffffffffffffffffffffffffffffffffffffffffffffffff1916827bffffffffffffffffffffffffffffffffffffffffffffffffffffffff191614156108785760019050610884565b61088182610f96565b90505b919050565b8473ffffffffffffffffffffffffffffffffffffffff163373ffffffffffffffffffffffffffffffffffffffff1614806108c957506108c88533610da0565b5b61091e576040517f08c379a000000000000000000000000000000000000000000000000000000000815260040180806020018281038252603c815260200180611fd5603c913960400191505060405180910390fd5b600073ffffffffffffffffffffffffffffffffffffffff168473ffffffffffffffffffffffffffffffffffffffff1614156109a4576040517f08c379a000000000000000000000000000000000000000000000000000000000815260040180806020018281038252603d815260200180611ea0603d913960400191505060405180910390fd5b6109b085858585610fe7565b6109be858585855a866115d5565b5050505050565b606060008351905082518114610a26576040517f08c379a0000000000000000000000000000000000000000000000000000000008152600401808060200182810382526039815260200180611e676039913960400191505060405180910390fd5b600080610a4685600081518110610a3957fe5b6020026020010151610d68565b91509150600080600088600081518110610a5c57fe5b602002602001015173ffffffffffffffffffffffffffffffffffffffff1673ffffffffffffffffffffffffffffffffffffffff1681526020019081526020016000206000848152602001908152602001600020549050600083905060608567ffffffffffffffff81118015610ad057600080fd5b50604051908082528060200260200182016040528015610aff5781602001602082028036833780820191505090505b509050610b0c8385610e34565b81600081518110610b1957fe5b6020026020010181815250506000600190505b86811015610c5957610b50898281518110610b4357fe5b6020026020010151610d68565b80965081975050508286141580610bbc5750898181518110610b6e57fe5b602002602001015173ffffffffffffffffffffffffffffffffffffffff168a6001830381518110610b9b57fe5b602002602001015173ffffffffffffffffffffffffffffffffffffffff1614155b15610c2a576000808b8381518110610bd057fe5b602002602001015173ffffffffffffffffffffffffffffffffffffffff1673ffffffffffffffffffffffffffffffffffffffff16815260200190815260200160002060008781526020019081526020016000205493508592505b610c348486610e34565b828281518110610c4057fe5b6020026020010181815250508080600101915050610b2c565b5080965050505050505092915050565b80600160003373ffffffffffffffffffffffffffffffffffffffff1673ffffffffffffffffffffffffffffffffffffffff16815260200190815260200160002060008473ffffffffffffffffffffffffffffffffffffffff1673ffffffffffffffffffffffffffffffffffffffff16815260200190815260200160002060006101000a81548160ff0219169083151502179055508173ffffffffffffffffffffffffffffffffffffffff163373ffffffffffffffffffffffffffffffffffffffff167f17307eab39ab6107e8899845ad3d59bd9653f200f220920489ca2b5937696c318360405180821515815260200191505060405180910390a35050565b600080602061010081610d7757fe5b048381610d8057fe5b049150602061010081610d8f57fe5b048381610d9857fe5b069050915091565b6000600160008473ffffffffffffffffffffffffffffffffffffffff1673ffffffffffffffffffffffffffffffffffffffff16815260200190815260200160002060008373ffffffffffffffffffffffffffffffffffffffff1673ffffffffffffffffffffffffffffffffffffffff16815260200190815260200160002060009054906101000a900460ff16905092915050565b600080600160206001901b0390506000836020029050818186901c169250505092915050565b8473ffffffffffffffffffffffffffffffffffffffff163373ffffffffffffffffffffffffffffffffffffffff161480610e9a5750610e998533610da0565b5b610eef576040517f08c379a0000000000000000000000000000000000000000000000000000000008152600401808060200182810382526037815260200180611f106037913960400191505060405180910390fd5b600073ffffffffffffffffffffffffffffffffffffffff168473ffffffffffffffffffffffffffffffffffffffff161415610f75576040517f08c379a000000000000000000000000000000000000000000000000000000000815260040180806020018281038252603881526020018061208e6038913960400191505060405180910390fd5b610f8185858585611867565b610f8f858585855a8661190b565b5050505050565b60006301ffc9a760e01b7bffffffffffffffffffffffffffffffffffffffffffffffffffffffff1916827bffffffffffffffffffffffffffffffffffffffffffffffffffffffff1916149050919050565b60008251905081518114611046576040517f08c379a0000000000000000000000000000000000000000000000000000000008152600401808060200182810382526042815260200180611f476042913960600191505060405180910390fd5b8373ffffffffffffffffffffffffffffffffffffffff168573ffffffffffffffffffffffffffffffffffffffff16141580156110825750600081115b15611426576000806110a78560008151811061109a57fe5b6020026020010151610d68565b91509150600061111d6000808a73ffffffffffffffffffffffffffffffffffffffff1673ffffffffffffffffffffffffffffffffffffffff168152602001908152602001600020600085815260200190815260200160002054838760008151811061110e57fe5b60200260200101516001611b1b565b905060006111916000808a73ffffffffffffffffffffffffffffffffffffffff1673ffffffffffffffffffffffffffffffffffffffff168152602001908152602001600020600086815260200190815260200160002054848860008151811061118257fe5b60200260200101516000611b1b565b905060008490506000600190505b86811015611373576111c38982815181106111b657fe5b6020026020010151610d68565b809650819750505081861461132257836000808d73ffffffffffffffffffffffffffffffffffffffff1673ffffffffffffffffffffffffffffffffffffffff168152602001908152602001600020600084815260200190815260200160002081905550826000808c73ffffffffffffffffffffffffffffffffffffffff1673ffffffffffffffffffffffffffffffffffffffff1681526020019081526020016000206000848152602001908152602001600020819055506000808c73ffffffffffffffffffffffffffffffffffffffff1673ffffffffffffffffffffffffffffffffffffffff16815260200190815260200160002060008781526020019081526020016000205493506000808b73ffffffffffffffffffffffffffffffffffffffff1673ffffffffffffffffffffffffffffffffffffffff16815260200190815260200160002060008781526020019081526020016000205492508591505b61134284868a848151811061133357fe5b60200260200101516001611b1b565b935061136483868a848151811061135557fe5b60200260200101516000611b1b565b9250808060010191505061119f565b50826000808c73ffffffffffffffffffffffffffffffffffffffff1673ffffffffffffffffffffffffffffffffffffffff168152602001908152602001600020600087815260200190815260200160002081905550816000808b73ffffffffffffffffffffffffffffffffffffffff1673ffffffffffffffffffffffffffffffffffffffff16815260200190815260200160002060008781526020019081526020016000208190555050505050506114c8565b60005b818110156114c65782818151811061143d57fe5b60200260200101516114628786848151811061145557fe5b602002602001015161078e565b10156114b9576040517f08c379a00000000000000000000000000000000000000000000000000000000081526004018080602001828103825260368152602001806120116036913960400191505060405180910390fd5b8080600101915050611429565b505b8373ffffffffffffffffffffffffffffffffffffffff168573ffffffffffffffffffffffffffffffffffffffff163373ffffffffffffffffffffffffffffffffffffffff167f4a39dc06d4c0dbc64b70af90fd698a233a518aa5d07e595d983b8c0526c8f7fb8686604051808060200180602001838103835285818151815260200191508051906020019060200280838360005b8381101561157757808201518184015260208101905061155c565b50505050905001838103825284818151815260200191508051906020019060200280838360005b838110156115b957808201518184015260208101905061159e565b5050505090500194505050505060405180910390a45050505050565b6115f48573ffffffffffffffffffffffffffffffffffffffff16611d57565b1561185f5760008573ffffffffffffffffffffffffffffffffffffffff1663bc197c8184338a8989886040518763ffffffff1660e01b8152600401808673ffffffffffffffffffffffffffffffffffffffff1681526020018573ffffffffffffffffffffffffffffffffffffffff168152602001806020018060200180602001848103845287818151815260200191508051906020019060200280838360005b838110156116af578082015181840152602081019050611694565b50505050905001848103835286818151815260200191508051906020019060200280838360005b838110156116f15780820151818401526020810190506116d6565b50505050905001848103825285818151815260200191508051906020019080838360005b83811015611730578082015181840152602081019050611715565b50505050905090810190601f16801561175d5780820380516001836020036101000a031916815260200191505b5098505050505050505050602060405180830381600088803b15801561178257600080fd5b5087f1158015611796573d6000803e3d6000fd5b50505050506040513d60208110156117ad57600080fd5b8101908080519060200190929190505050905063bc197c8160e01b7bffffffffffffffffffffffffffffffffffffffffffffffffffffffff1916817bffffffffffffffffffffffffffffffffffffffffffffffffffffffff19161461185d576040517f08c379a000000000000000000000000000000000000000000000000000000000815260040180806020018281038252604c815260200180611f89604c913960600191505060405180910390fd5b505b505050505050565b6118748483836001611d9c565b6118818383836000611d9c565b8273ffffffffffffffffffffffffffffffffffffffff168473ffffffffffffffffffffffffffffffffffffffff163373ffffffffffffffffffffffffffffffffffffffff167fc3d58168c5ae7397731d063d5bbf3d657854427343f4c083240f7aacaa2d0f628585604051808381526020018281526020019250505060405180910390a450505050565b61192a8573ffffffffffffffffffffffffffffffffffffffff16611d57565b15611b135760008573ffffffffffffffffffffffffffffffffffffffff1663f23a6e6184338a8989886040518763ffffffff1660e01b8152600401808673ffffffffffffffffffffffffffffffffffffffff1681526020018573ffffffffffffffffffffffffffffffffffffffff16815260200184815260200183815260200180602001828103825283818151815260200191508051906020019080838360005b838110156119e65780820151818401526020810190506119cb565b50505050905090810190601f168015611a135780820380516001836020036101000a031916815260200191505b509650505050505050602060405180830381600088803b158015611a3657600080fd5b5087f1158015611a4a573d6000803e3d6000fd5b50505050506040513d6020811015611a6157600080fd5b8101908080519060200190929190505050905063f23a6e6160e01b7bffffffffffffffffffffffffffffffffffffffffffffffffffffffff1916817bffffffffffffffffffffffffffffffffffffffffffffffffffffffff191614611b11576040517f08c379a00000000000000000000000000000000000000000000000000000000081526004018080602001828103825260478152602001806120476047913960600191505060405180910390fd5b505b505050505050565b6000808460200290506000600160206001901b03905060006001811115611b3e57fe5b846001811115611b4a57fe5b1415611c19578185901b8701925086831015611bb1576040517f08c379a000000000000000000000000000000000000000000000000000000000815260040180806020018281038252603281526020018061210b6032913960400191505060405180910390fd5b602060020a8582848a901c160110611c14576040517f08c379a000000000000000000000000000000000000000000000000000000000815260040180806020018281038252603281526020018061210b6032913960400191505060405180910390fd5b611d4d565b600180811115611c2557fe5b846001811115611c3157fe5b1415611cfb578185901b8703925086831115611c98576040517f08c379a0000000000000000000000000000000000000000000000000000000008152600401808060200182810382526033815260200180611edd6033913960400191505060405180910390fd5b84818389901c161015611cf6576040517f08c379a0000000000000000000000000000000000000000000000000000000008152600401808060200182810382526033815260200180611edd6033913960400191505060405180910390fd5b611d4c565b6040517f08c379a00000000000000000000000000000000000000000000000000000000081526004018080602001828103825260458152602001806120c66045913960600191505060405180910390fd5b5b5050949350505050565b600080823f90506000801b8114158015611d9457507fc5d2460186f7233c927e7db2dcc703c0e500b653ca82273b7bfad8045d85a47060001b8114155b915050919050565b600080611da885610d68565b8092508193505050611e0b6000808873ffffffffffffffffffffffffffffffffffffffff1673ffffffffffffffffffffffffffffffffffffffff168152602001908152602001600020600084815260200190815260200160002054828686611b1b565b6000808873ffffffffffffffffffffffffffffffffffffffff1673ffffffffffffffffffffffffffffffffffffffff16815260200190815260200160002060008481526020019081526020016000208190555050505050505056fe455243313135355061636b656442616c616e63652362616c616e63654f6642617463683a20494e56414c49445f41525241595f4c454e475448455243313135355061636b656442616c616e6365237361666542617463685472616e7366657246726f6d3a20494e56414c49445f524543495049454e54455243313135355061636b656442616c616e6365235f7669657755706461746542696e56616c75653a20554e444552464c4f57455243313135355061636b656442616c616e636523736166655472616e7366657246726f6d3a20494e56414c49445f4f50455241544f52455243313135355061636b656442616c616e6365235f7361666542617463685472616e7366657246726f6d3a20494e56414c49445f4152524159535f4c454e475448455243313135355061636b656442616c616e6365235f63616c6c6f6e45524331313535426174636852656365697665643a20494e56414c49445f4f4e5f524543454956455f4d455353414745455243313135355061636b656442616c616e6365237361666542617463685472616e7366657246726f6d3a20494e56414c49445f4f50455241544f52455243313135355061636b656442616c616e6365235f7361666542617463685472616e7366657246726f6d3a20554e444552464c4f57455243313135355061636b656442616c616e6365235f63616c6c6f6e4552433131353552656365697665643a20494e56414c49445f4f4e5f524543454956455f4d455353414745455243313135355061636b656442616c616e636523736166655472616e7366657246726f6d3a20494e56414c49445f524543495049454e54455243313135355061636b656442616c616e6365235f7669657755706461746542696e56616c75653a20494e56414c49445f42494e5f57524954455f4f5045524154494f4e455243313135355061636b656442616c616e6365235f7669657755706461746542696e56616c75653a204f564552464c4f57a2646970667358221220ec24b2ecf3f69f1e6db70f270ed2be1bc6b0cffb4ee1369d228e3e79842ef35f64736f6c63430007040033",
  "immutableReferences": {},
  "source": "// SPDX-License-Identifier: Apache-2.0\npragma solidity 0.7.4;\n\nimport \"./ERC1155PackedBalance.sol\";\n\n\n/**\n * @dev Multi-Fungible Tokens with minting and burning methods. These methods assume\n *      a parent contract to be executed as they are `internal` functions.\n */\ncontract ERC1155MintBurnPackedBalance is ERC1155PackedBalance {\n\n  /****************************************|\n  |            Minting Functions           |\n  |_______________________________________*/\n\n  /**\n   * @notice Mint _amount of tokens of a given id\n   * @param _to      The address to mint tokens to\n   * @param _id      Token id to mint\n   * @param _amount  The amount to be minted\n   * @param _data    Data to pass if receiver is contract\n   */\n  function _mint(address _to, uint256 _id, uint256 _amount, bytes memory _data)\n    internal\n  {\n    //Add _amount\n    _updateIDBalance(_to,   _id, _amount, Operations.Add); // Add amount to recipient\n\n    // Emit event\n    emit TransferSingle(msg.sender, address(0x0), _to, _id, _amount);\n\n    // Calling onReceive method if recipient is contract\n    _callonERC1155Received(address(0x0), _to, _id, _amount, gasleft(), _data);\n  }\n\n  /**\n   * @notice Mint tokens for each (_ids[i], _amounts[i]) pair\n   * @param _to       The address to mint tokens to\n   * @param _ids      Array of ids to mint\n   * @param _amounts  Array of amount of tokens to mint per id\n   * @param _data    Data to pass if receiver is contract\n   */\n  function _batchMint(address _to, uint256[] memory _ids, uint256[] memory _amounts, bytes memory _data)\n    internal\n  {\n    require(_ids.length == _amounts.length, \"ERC1155MintBurnPackedBalance#_batchMint: INVALID_ARRAYS_LENGTH\");\n\n    if (_ids.length > 0) {\n      // Load first bin and index where the token ID balance exists\n      (uint256 bin, uint256 index) = getIDBinIndex(_ids[0]);\n\n      // Balance for current bin in memory (initialized with first transfer)\n      uint256 balTo = _viewUpdateBinValue(balances[_to][bin], index, _amounts[0], Operations.Add);\n\n      // Number of transfer to execute\n      uint256 nTransfer = _ids.length;\n\n      // Last bin updated\n      uint256 lastBin = bin;\n\n      for (uint256 i = 1; i < nTransfer; i++) {\n        (bin, index) = getIDBinIndex(_ids[i]);\n\n        // If new bin\n        if (bin != lastBin) {\n          // Update storage balance of previous bin\n          balances[_to][lastBin] = balTo;\n          balTo = balances[_to][bin];\n\n          // Bin will be the most recent bin\n          lastBin = bin;\n        }\n\n        // Update memory balance\n        balTo = _viewUpdateBinValue(balTo, index, _amounts[i], Operations.Add);\n      }\n\n      // Update storage of the last bin visited\n      balances[_to][bin] = balTo;\n    }\n\n    // //Emit event\n    emit TransferBatch(msg.sender, address(0x0), _to, _ids, _amounts);\n\n    // Calling onReceive method if recipient is contract\n    _callonERC1155BatchReceived(address(0x0), _to, _ids, _amounts, gasleft(), _data);\n  }\n\n\n  /****************************************|\n  |            Burning Functions           |\n  |_______________________________________*/\n\n  /**\n   * @notice Burn _amount of tokens of a given token id\n   * @param _from    The address to burn tokens from\n   * @param _id      Token id to burn\n   * @param _amount  The amount to be burned\n   */\n  function _burn(address _from, uint256 _id, uint256 _amount)\n    internal\n  {\n    // Substract _amount\n    _updateIDBalance(_from, _id, _amount, Operations.Sub);\n\n    // Emit event\n    emit TransferSingle(msg.sender, _from, address(0x0), _id, _amount);\n  }\n\n  /**\n   * @notice Burn tokens of given token id for each (_ids[i], _amounts[i]) pair\n   * @dev This batchBurn method does not implement the most efficient way of updating\n   *      balances to reduce the potential bug surface as this function is expected to\n   *      be less common than transfers. EIP-2200 makes this method significantly\n   *      more efficient already for packed balances.\n   * @param _from     The address to burn tokens from\n   * @param _ids      Array of token ids to burn\n   * @param _amounts  Array of the amount to be burned\n   */\n  function _batchBurn(address _from, uint256[] memory _ids, uint256[] memory _amounts)\n    internal\n  {\n    // Number of burning to execute\n    uint256 nBurn = _ids.length;\n    require(nBurn == _amounts.length, \"ERC1155MintBurnPackedBalance#batchBurn: INVALID_ARRAYS_LENGTH\");\n\n    // Executing all burning\n    for (uint256 i = 0; i < nBurn; i++) {\n      // Update storage balance\n      _updateIDBalance(_from,   _ids[i], _amounts[i], Operations.Sub); // Add amount to recipient\n    }\n\n    // Emit batch burn event\n    emit TransferBatch(msg.sender, _from, address(0x0), _ids, _amounts);\n  }\n}\n",
  "sourcePath": "D:/Apps/hashable-art-dapp/contracts/tokens/ERC1155PackedBalance/ERC1155MintBurnPackedBalance.sol",
  "compiler": {
    "name": "solc",
    "version": "0.7.4+commit.3f05b770.Emscripten.clang"
  },
  "schemaVersion": "3.3.4",
  "updatedAt": "2021-04-09T00:53:41.912Z",
  "devdoc": {
    "details": "Multi-Fungible Tokens with minting and burning methods. These methods assume      a parent contract to be executed as they are `internal` functions.",
    "kind": "dev",
    "methods": {
      "balanceOf(address,uint256)": {
        "params": {
          "_id": "ID of the Token",
          "_owner": "The address of the token holder"
        },
        "returns": {
          "_0": "The _owner's balance of the Token type requested"
        }
      },
      "balanceOfBatch(address[],uint256[])": {
        "params": {
          "_ids": "ID of the Tokens (sorted ids will lead to less gas usage",
          "_owners": "The addresses of the token holders (sorted owners will lead to less gas usage)"
        },
        "returns": {
          "_0": "The _owner's balance of the Token types requested (i.e. balance for each (owner, id) pair)"
        }
      },
      "getIDBinIndex(uint256)": {
        "params": {
          "_id": "Token id"
        },
        "returns": {
          "bin": "index (Bin number, ID\"s index within that bin)"
        }
      },
      "getValueInBin(uint256,uint256)": {
        "params": {
          "_binValues": "uint256 containing the balances of IDS_PER_UINT256 ids",
          "_index": "Index at which to retrieve amount"
        },
        "returns": {
          "_0": "amount at given _index in _bin"
        }
      },
      "isApprovedForAll(address,address)": {
        "params": {
          "_operator": "Address of authorized operator",
          "_owner": "The owner of the Tokens"
        },
        "returns": {
          "isOperator": "True if the operator is approved, false if not"
        }
      },
      "safeBatchTransferFrom(address,address,uint256[],uint256[],bytes)": {
        "details": "Arrays should be sorted so that all ids in a same storage slot are adjacent (more efficient)",
        "params": {
          "_amounts": "Transfer amounts per token type",
          "_data": "Additional data with no specified format, sent in call to `_to`",
          "_from": "Source addresses",
          "_ids": "IDs of each token type",
          "_to": "Target addresses"
        }
      },
      "safeTransferFrom(address,address,uint256,uint256,bytes)": {
        "params": {
          "_amount": "Transfered amount",
          "_data": "Additional data with no specified format, sent in call to `_to`",
          "_from": "Source address",
          "_id": "ID of the token type",
          "_to": "Target address"
        }
      },
      "setApprovalForAll(address,bool)": {
        "params": {
          "_approved": "True if the operator is approved, false to revoke approval",
          "_operator": "Address to add to the set of authorized operators"
        }
      },
      "supportsInterface(bytes4)": {
        "params": {
          "_interfaceID": "The interface identifier, as specified in ERC-165"
        },
        "returns": {
          "_0": "`true` if the contract implements `_interfaceID` and"
        }
      }
    },
    "version": 1
  },
  "userdoc": {
    "kind": "user",
    "methods": {
      "balanceOf(address,uint256)": {
        "notice": "Get the balance of an account's Tokens"
      },
      "balanceOfBatch(address[],uint256[])": {
        "notice": "Get the balance of multiple account/token pairs"
      },
      "getIDBinIndex(uint256)": {
        "notice": "Return the bin number and index within that bin where ID is"
      },
      "getValueInBin(uint256,uint256)": {
        "notice": "Return amount in _binValues at position _index"
      },
      "isApprovedForAll(address,address)": {
        "notice": "Queries the approval status of an operator for a given owner"
      },
      "safeBatchTransferFrom(address,address,uint256[],uint256[],bytes)": {
        "notice": "Send multiple types of Tokens from the _from address to the _to address (with safety call)"
      },
      "safeTransferFrom(address,address,uint256,uint256,bytes)": {
        "notice": "Transfers amount amount of an _id from the _from address to the _to address specified"
      },
      "setApprovalForAll(address,bool)": {
        "notice": "Enable or disable approval for a third party (\"operator\") to manage all of caller's tokens"
      },
      "supportsInterface(bytes4)": {
        "notice": "Query if a contract implements an interface"
      }
    },
    "version": 1
  }
}