{
  "contractName": "ERC1155Metadata",
  "abi": [
    {
      "anonymous": false,
      "inputs": [
        {
          "indexed": false,
          "internalType": "string",
          "name": "_uri",
          "type": "string"
        },
        {
          "indexed": true,
          "internalType": "uint256",
          "name": "_id",
          "type": "uint256"
        }
      ],
      "name": "URI",
      "type": "event"
    },
    {
      "inputs": [
        {
          "internalType": "uint256",
          "name": "_id",
          "type": "uint256"
        }
      ],
      "name": "uri",
      "outputs": [
        {
          "internalType": "string",
          "name": "",
          "type": "string"
        }
      ],
      "stateMutability": "view",
      "type": "function"
    },
    {
      "inputs": [
        {
          "internalType": "bytes4",
          "name": "_interfaceID",
          "type": "bytes4"
        }
      ],
      "name": "supportsInterface",
      "outputs": [
        {
          "internalType": "bool",
          "name": "",
          "type": "bool"
        }
      ],
      "stateMutability": "pure",
      "type": "function"
    }
  ],
  "bytecode": "0x608060405234801561001057600080fd5b50610498806100206000396000f3fe608060405234801561001057600080fd5b50600436106100365760003560e01c806301ffc9a71461003b5780630e89341c1461009e575b600080fd5b6100866004803603602081101561005157600080fd5b8101908080357bffffffffffffffffffffffffffffffffffffffffffffffffffffffff19169060200190929190505050610145565b60405180821515815260200191505060405180910390f35b6100ca600480360360208110156100b457600080fd5b81019080803590602001909291905050506101c7565b6040518080602001828103825283818151815260200191508051906020019080838360005b8381101561010a5780820151818401526020810190506100ef565b50505050905090810190601f1680156101375780820380516001836020036101000a031916815260200191505b509250505060405180910390f35b60007f0e89341c000000000000000000000000000000000000000000000000000000007bffffffffffffffffffffffffffffffffffffffffffffffffffffffff1916827bffffffffffffffffffffffffffffffffffffffffffffffffffffffff191614156101b657600190506101c2565b6101bf826102c7565b90505b919050565b606060006101d483610318565b60405160200180838054600181600116156101000203166002900480156102325780601f10610210576101008083540402835291820191610232565b820191906000526020600020905b81548152906001019060200180831161021e575b505082805190602001908083835b602083106102635780518252602082019150602081019050602083039250610240565b6001836020036101000a038019825116818451168082178552505050505050905001807f2e6a736f6e000000000000000000000000000000000000000000000000000000815250600501925050506040516020818303038152906040529050919050565b60006301ffc9a760e01b7bffffffffffffffffffffffffffffffffffffffffffffffffffffffff1916827bffffffffffffffffffffffffffffffffffffffffffffffffffffffff1916149050919050565b60606000821415610360576040518060400160405280600181526020017f3000000000000000000000000000000000000000000000000000000000000000815250905061045d565b6000829050600083905060005b6000831461038f578080600101915050600a838161038757fe5b04925061036d565b60608167ffffffffffffffff811180156103a857600080fd5b506040519080825280601f01601f1916602001820160405280156103db5781602001600182028036833780820191505090505b50905060006001830390505b6000841461045457600a84816103f957fe5b0660300160f81b8282806001900393508151811061041357fe5b60200101907effffffffffffffffffffffffffffffffffffffffffffffffffffffffffffff1916908160001a905350600a848161044c57fe5b0493506103e7565b81955050505050505b91905056fea26469706673582212205681730a009e68de666df93bb985d1e1af598b9e9de11a1b5dea47ce71df8c9964736f6c63430007040033",
  "immutableReferences": {},
  "source": "// SPDX-License-Identifier: Apache-2.0\npragma solidity 0.7.4;\nimport \"../../interfaces/IERC1155Metadata.sol\";\nimport \"../../utils/ERC165.sol\";\n\n\n/**\n * @notice Contract that handles metadata related methods.\n * @dev Methods assume a deterministic generation of URI based on token IDs.\n *      Methods also assume that URI uses hex representation of token IDs.\n */\ncontract ERC1155Metadata is IERC1155Metadata, ERC165 {\n  // URI's default URI prefix\n  string internal baseMetadataURI;\n\n  /***********************************|\n  |     Metadata Public Function s    |\n  |__________________________________*/\n\n  /**\n   * @notice A distinct Uniform Resource Identifier (URI) for a given token.\n   * @dev URIs are defined in RFC 3986.\n   *      URIs are assumed to be deterministically generated based on token ID\n   * @return URI string\n   */\n  function uri(uint256 _id) public override virtual view returns (string memory) {\n    return string(abi.encodePacked(baseMetadataURI, _uint2str(_id), \".json\"));\n  }\n\n\n  /***********************************|\n  |    Metadata Internal Functions    |\n  |__________________________________*/\n\n  /**\n   * @notice Will emit default URI log event for corresponding token _id\n   * @param _tokenIDs Array of IDs of tokens to log default URI\n   */\n  function _logURIs(uint256[] memory _tokenIDs) internal {\n    string memory baseURL = baseMetadataURI;\n    string memory tokenURI;\n\n    for (uint256 i = 0; i < _tokenIDs.length; i++) {\n      tokenURI = string(abi.encodePacked(baseURL, _uint2str(_tokenIDs[i]), \".json\"));\n      emit URI(tokenURI, _tokenIDs[i]);\n    }\n  }\n\n  /**\n   * @notice Will update the base URL of token's URI\n   * @param _newBaseMetadataURI New base URL of token's URI\n   */\n  function _setBaseMetadataURI(string memory _newBaseMetadataURI) internal {\n    baseMetadataURI = _newBaseMetadataURI;\n  }\n\n  /**\n   * @notice Query if a contract implements an interface\n   * @param _interfaceID  The interface identifier, as specified in ERC-165\n   * @return `true` if the contract implements `_interfaceID` and\n   */\n  function supportsInterface(bytes4 _interfaceID) public override virtual pure returns (bool) {\n    if (_interfaceID == type(IERC1155Metadata).interfaceId) {\n      return true;\n    }\n    return super.supportsInterface(_interfaceID);\n  }\n\n\n  /***********************************|\n  |    Utility Internal Functions     |\n  |__________________________________*/\n\n  /**\n   * @notice Convert uint256 to string\n   * @param _i Unsigned integer to convert to string\n   */\n  function _uint2str(uint256 _i) internal pure returns (string memory _uintAsString) {\n    if (_i == 0) {\n      return \"0\";\n    }\n\n    uint256 j = _i;\n    uint256 ii = _i;\n    uint256 len;\n\n    // Get number of bytes\n    while (j != 0) {\n      len++;\n      j /= 10;\n    }\n\n    bytes memory bstr = new bytes(len);\n    uint256 k = len - 1;\n\n    // Get each individual ASCII\n    while (ii != 0) {\n      bstr[k--] = byte(uint8(48 + ii % 10));\n      ii /= 10;\n    }\n\n    // Convert to string\n    return string(bstr);\n  }\n}\n",
  "sourcePath": "D:/Apps/hashable-art-dapp/contracts/tokens/ERC1155/ERC1155Metadata.sol",
  "compiler": {
    "name": "solc",
    "version": "0.7.4+commit.3f05b770.Emscripten.clang"
  },
  "schemaVersion": "3.3.4",
  "updatedAt": "2021-04-09T00:53:41.873Z",
  "devdoc": {
    "details": "Methods assume a deterministic generation of URI based on token IDs.      Methods also assume that URI uses hex representation of token IDs.",
    "kind": "dev",
    "methods": {
      "supportsInterface(bytes4)": {
        "params": {
          "_interfaceID": "The interface identifier, as specified in ERC-165"
        },
        "returns": {
          "_0": "`true` if the contract implements `_interfaceID` and"
        }
      },
      "uri(uint256)": {
        "details": "URIs are defined in RFC 3986.      URIs are assumed to be deterministically generated based on token ID",
        "returns": {
          "_0": "URI string"
        }
      }
    },
    "version": 1
  },
  "userdoc": {
    "kind": "user",
    "methods": {
      "supportsInterface(bytes4)": {
        "notice": "Query if a contract implements an interface"
      },
      "uri(uint256)": {
        "notice": "A distinct Uniform Resource Identifier (URI) for a given token."
      }
    },
    "notice": "Contract that handles metadata related methods.",
    "version": 1
  }
}