{
  "contractName": "ERC1155Meta",
  "abi": [
    {
      "anonymous": false,
      "inputs": [
        {
          "indexed": true,
          "internalType": "address",
          "name": "_owner",
          "type": "address"
        },
        {
          "indexed": true,
          "internalType": "address",
          "name": "_operator",
          "type": "address"
        },
        {
          "indexed": false,
          "internalType": "bool",
          "name": "_approved",
          "type": "bool"
        }
      ],
      "name": "ApprovalForAll",
      "type": "event"
    },
    {
      "anonymous": false,
      "inputs": [
        {
          "indexed": true,
          "internalType": "address",
          "name": "signer",
          "type": "address"
        },
        {
          "indexed": false,
          "internalType": "uint256",
          "name": "newNonce",
          "type": "uint256"
        }
      ],
      "name": "NonceChange",
      "type": "event"
    },
    {
      "anonymous": false,
      "inputs": [
        {
          "indexed": true,
          "internalType": "address",
          "name": "_operator",
          "type": "address"
        },
        {
          "indexed": true,
          "internalType": "address",
          "name": "_from",
          "type": "address"
        },
        {
          "indexed": true,
          "internalType": "address",
          "name": "_to",
          "type": "address"
        },
        {
          "indexed": false,
          "internalType": "uint256[]",
          "name": "_ids",
          "type": "uint256[]"
        },
        {
          "indexed": false,
          "internalType": "uint256[]",
          "name": "_amounts",
          "type": "uint256[]"
        }
      ],
      "name": "TransferBatch",
      "type": "event"
    },
    {
      "anonymous": false,
      "inputs": [
        {
          "indexed": true,
          "internalType": "address",
          "name": "_operator",
          "type": "address"
        },
        {
          "indexed": true,
          "internalType": "address",
          "name": "_from",
          "type": "address"
        },
        {
          "indexed": true,
          "internalType": "address",
          "name": "_to",
          "type": "address"
        },
        {
          "indexed": false,
          "internalType": "uint256",
          "name": "_id",
          "type": "uint256"
        },
        {
          "indexed": false,
          "internalType": "uint256",
          "name": "_amount",
          "type": "uint256"
        }
      ],
      "name": "TransferSingle",
      "type": "event"
    },
    {
      "anonymous": false,
      "inputs": [
        {
          "indexed": false,
          "internalType": "string",
          "name": "_uri",
          "type": "string"
        },
        {
          "indexed": true,
          "internalType": "uint256",
          "name": "_id",
          "type": "uint256"
        }
      ],
      "name": "URI",
      "type": "event"
    },
    {
      "inputs": [
        {
          "internalType": "address",
          "name": "_owner",
          "type": "address"
        },
        {
          "internalType": "uint256",
          "name": "_id",
          "type": "uint256"
        }
      ],
      "name": "balanceOf",
      "outputs": [
        {
          "internalType": "uint256",
          "name": "",
          "type": "uint256"
        }
      ],
      "stateMutability": "view",
      "type": "function"
    },
    {
      "inputs": [
        {
          "internalType": "address[]",
          "name": "_owners",
          "type": "address[]"
        },
        {
          "internalType": "uint256[]",
          "name": "_ids",
          "type": "uint256[]"
        }
      ],
      "name": "balanceOfBatch",
      "outputs": [
        {
          "internalType": "uint256[]",
          "name": "",
          "type": "uint256[]"
        }
      ],
      "stateMutability": "view",
      "type": "function"
    },
    {
      "inputs": [
        {
          "internalType": "address",
          "name": "_owner",
          "type": "address"
        },
        {
          "internalType": "address",
          "name": "_operator",
          "type": "address"
        }
      ],
      "name": "isApprovedForAll",
      "outputs": [
        {
          "internalType": "bool",
          "name": "isOperator",
          "type": "bool"
        }
      ],
      "stateMutability": "view",
      "type": "function"
    },
    {
      "inputs": [
        {
          "internalType": "address",
          "name": "_signerAddress",
          "type": "address"
        },
        {
          "internalType": "bytes32",
          "name": "_hash",
          "type": "bytes32"
        },
        {
          "internalType": "bytes",
          "name": "_data",
          "type": "bytes"
        },
        {
          "internalType": "bytes",
          "name": "_sig",
          "type": "bytes"
        }
      ],
      "name": "isValidSignature",
      "outputs": [
        {
          "internalType": "bool",
          "name": "isValid",
          "type": "bool"
        }
      ],
      "stateMutability": "view",
      "type": "function"
    },
    {
      "inputs": [
        {
          "internalType": "address",
          "name": "_from",
          "type": "address"
        },
        {
          "internalType": "address",
          "name": "_to",
          "type": "address"
        },
        {
          "internalType": "uint256[]",
          "name": "_ids",
          "type": "uint256[]"
        },
        {
          "internalType": "uint256[]",
          "name": "_amounts",
          "type": "uint256[]"
        },
        {
          "internalType": "bytes",
          "name": "_data",
          "type": "bytes"
        }
      ],
      "name": "safeBatchTransferFrom",
      "outputs": [],
      "stateMutability": "nonpayable",
      "type": "function"
    },
    {
      "inputs": [
        {
          "internalType": "address",
          "name": "_from",
          "type": "address"
        },
        {
          "internalType": "address",
          "name": "_to",
          "type": "address"
        },
        {
          "internalType": "uint256",
          "name": "_id",
          "type": "uint256"
        },
        {
          "internalType": "uint256",
          "name": "_amount",
          "type": "uint256"
        },
        {
          "internalType": "bytes",
          "name": "_data",
          "type": "bytes"
        }
      ],
      "name": "safeTransferFrom",
      "outputs": [],
      "stateMutability": "nonpayable",
      "type": "function"
    },
    {
      "inputs": [
        {
          "internalType": "address",
          "name": "_operator",
          "type": "address"
        },
        {
          "internalType": "bool",
          "name": "_approved",
          "type": "bool"
        }
      ],
      "name": "setApprovalForAll",
      "outputs": [],
      "stateMutability": "nonpayable",
      "type": "function"
    },
    {
      "inputs": [
        {
          "internalType": "bytes4",
          "name": "_interfaceID",
          "type": "bytes4"
        }
      ],
      "name": "supportsInterface",
      "outputs": [
        {
          "internalType": "bool",
          "name": "",
          "type": "bool"
        }
      ],
      "stateMutability": "pure",
      "type": "function"
    },
    {
      "inputs": [
        {
          "internalType": "uint256",
          "name": "_id",
          "type": "uint256"
        }
      ],
      "name": "uri",
      "outputs": [
        {
          "internalType": "string",
          "name": "",
          "type": "string"
        }
      ],
      "stateMutability": "view",
      "type": "function"
    },
    {
      "inputs": [
        {
          "internalType": "address",
          "name": "_from",
          "type": "address"
        },
        {
          "internalType": "address",
          "name": "_to",
          "type": "address"
        },
        {
          "internalType": "uint256",
          "name": "_id",
          "type": "uint256"
        },
        {
          "internalType": "uint256",
          "name": "_amount",
          "type": "uint256"
        },
        {
          "internalType": "bool",
          "name": "_isGasFee",
          "type": "bool"
        },
        {
          "internalType": "bytes",
          "name": "_data",
          "type": "bytes"
        }
      ],
      "name": "metaSafeTransferFrom",
      "outputs": [],
      "stateMutability": "nonpayable",
      "type": "function"
    },
    {
      "inputs": [
        {
          "internalType": "address",
          "name": "_from",
          "type": "address"
        },
        {
          "internalType": "address",
          "name": "_to",
          "type": "address"
        },
        {
          "internalType": "uint256[]",
          "name": "_ids",
          "type": "uint256[]"
        },
        {
          "internalType": "uint256[]",
          "name": "_amounts",
          "type": "uint256[]"
        },
        {
          "internalType": "bool",
          "name": "_isGasFee",
          "type": "bool"
        },
        {
          "internalType": "bytes",
          "name": "_data",
          "type": "bytes"
        }
      ],
      "name": "metaSafeBatchTransferFrom",
      "outputs": [],
      "stateMutability": "nonpayable",
      "type": "function"
    },
    {
      "inputs": [
        {
          "internalType": "address",
          "name": "_owner",
          "type": "address"
        },
        {
          "internalType": "address",
          "name": "_operator",
          "type": "address"
        },
        {
          "internalType": "bool",
          "name": "_approved",
          "type": "bool"
        },
        {
          "internalType": "bool",
          "name": "_isGasFee",
          "type": "bool"
        },
        {
          "internalType": "bytes",
          "name": "_data",
          "type": "bytes"
        }
      ],
      "name": "metaSetApprovalForAll",
      "outputs": [],
      "stateMutability": "nonpayable",
      "type": "function"
    },
    {
      "inputs": [
        {
          "internalType": "address",
          "name": "_signer",
          "type": "address"
        }
      ],
      "name": "getNonce",
      "outputs": [
        {
          "internalType": "uint256",
          "name": "nonce",
          "type": "uint256"
        }
      ],
      "stateMutability": "view",
      "type": "function"
    }
  ],
  "bytecode": "0x608060405234801561001057600080fd5b506143a0806100206000396000f3fe608060405234801561001057600080fd5b50600436106100ce5760003560e01c8063a22cb4651161008c578063e985e9c511610066578063e985e9c514610233578063f242432a14610263578063f5d4c8201461027f578063fa4e12d71461029b576100ce565b8063a22cb465146101df578063a3d4926e146101fb578063ce0b514b14610217576100ce565b8062fdd58e146100d357806301ffc9a7146101035780630e89341c146101335780632d0335ab146101635780632eb2c2d6146101935780634e1273f4146101af575b600080fd5b6100ed60048036038101906100e8919061338e565b6102cb565b6040516100fa9190613d6e565b60405180910390f35b61011d6004803603810190610118919061345f565b610325565b60405161012a9190613b5c565b60405180910390f35b61014d600480360381019061014891906135a1565b6103a7565b60405161015a9190613c8c565b60405180910390f35b61017d60048036038101906101789190612ea6565b6104a7565b60405161018a9190613d6e565b60405180910390f35b6101ad60048036038101906101a89190613041565b6104f0565b005b6101c960048036038101906101c491906133ca565b61062c565b6040516101d69190613b3a565b60405180910390f35b6101f960048036038101906101f491906132bf565b610786565b005b61021560048036038101906102109190612f70565b610885565b005b610231600480360381019061022c919061318f565b610a1d565b005b61024d60048036038101906102489190612f34565b610b69565b60405161025a9190613b5c565b60405180910390f35b61027d60048036038101906102789190613230565b610bfd565b005b61029960048036038101906102949190613100565b610d39565b005b6102b560048036038101906102b091906132fb565b610edf565b6040516102c29190613b5c565b60405180910390f35b60008060008473ffffffffffffffffffffffffffffffffffffffff1673ffffffffffffffffffffffffffffffffffffffff168152602001908152602001600020600083815260200190815260200160002054905092915050565b60007fd9b67a26000000000000000000000000000000000000000000000000000000007bffffffffffffffffffffffffffffffffffffffffffffffffffffffff1916827bffffffffffffffffffffffffffffffffffffffffffffffffffffffff1916141561039657600190506103a2565b61039f8261176e565b90505b919050565b606060026103b4836117bf565b60405160200180838054600181600116156101000203166002900480156104125780601f106103f0576101008083540402835291820191610412565b820191906000526020600020905b8154815290600101906020018083116103fe575b505082805190602001908083835b602083106104435780518252602082019150602081019050602083039250610420565b6001836020036101000a038019825116818451168082178552505050505050905001807f2e6a736f6e000000000000000000000000000000000000000000000000000000815250600501925050506040516020818303038152906040529050919050565b6000600360008373ffffffffffffffffffffffffffffffffffffffff1673ffffffffffffffffffffffffffffffffffffffff168152602001908152602001600020549050919050565b8473ffffffffffffffffffffffffffffffffffffffff163373ffffffffffffffffffffffffffffffffffffffff161480610530575061052f8533610b69565b5b610585576040517f08c379a000000000000000000000000000000000000000000000000000000000815260040180806020018281038252602f815260200180614244602f913960400191505060405180910390fd5b600073ffffffffffffffffffffffffffffffffffffffff168473ffffffffffffffffffffffffffffffffffffffff16141561060b576040517f08c379a00000000000000000000000000000000000000000000000000000000081526004018080602001828103825260308152602001806141b56030913960400191505060405180910390fd5b61061785858585611909565b610625858585855a86611c6b565b5050505050565b60608151835114610688576040517f08c379a000000000000000000000000000000000000000000000000000000000815260040180806020018281038252602c8152602001806141e5602c913960400191505060405180910390fd5b6060835167ffffffffffffffff811180156106a257600080fd5b506040519080825280602002602001820160405280156106d15781602001602082028036833780820191505090505b50905060005b845181101561077b576000808683815181106106ef57fe5b602002602001015173ffffffffffffffffffffffffffffffffffffffff1673ffffffffffffffffffffffffffffffffffffffff168152602001908152602001600020600085838151811061073f57fe5b602002602001015181526020019081526020016000205482828151811061076257fe5b60200260200101818152505080806001019150506106d7565b508091505092915050565b80600160003373ffffffffffffffffffffffffffffffffffffffff1673ffffffffffffffffffffffffffffffffffffffff16815260200190815260200160002060008473ffffffffffffffffffffffffffffffffffffffff1673ffffffffffffffffffffffffffffffffffffffff16815260200190815260200160002060006101000a81548160ff0219169083151502179055508173ffffffffffffffffffffffffffffffffffffffff163373ffffffffffffffffffffffffffffffffffffffff167f17307eab39ab6107e8899845ad3d59bd9653f200f220920489ca2b5937696c318360405180821515815260200191505060405180910390a35050565b600073ffffffffffffffffffffffffffffffffffffffff168573ffffffffffffffffffffffffffffffffffffffff1614156108f5576040517f08c379a00000000000000000000000000000000000000000000000000000000081526004016108ec90613d0e565b60405180910390fd5b60606108ff612b71565b60606109b289857fa3d4926e8cf8fe8e020cd29f514c256bc2eec62aa2337e415f1a33a4828af5a060001b8c8c8c60405160200161093d9190613a26565b604051602081830303815290604052805190602001208c6040516020016109649190613a26565b604051602081830303815290604052805190602001208c610986576000610989565b60015b60405160200161099e96959493929190613b77565b604051602081830303815290604052611efd565b90506109c089898989611909565b8415610a0357808060200190518101906109da9190613535565b80945081935050506109f489898989866020015188611c6b565b6109fe8983612121565b610a12565b610a11898989895a86611c6b565b5b505050505050505050565b600073ffffffffffffffffffffffffffffffffffffffff168573ffffffffffffffffffffffffffffffffffffffff161415610a8d576040517f08c379a0000000000000000000000000000000000000000000000000000000008152600401610a8490613cae565b60405180910390fd5b6060610a97612b71565b6060610afe89857fce0b514b3931bdbe4d5d44e4f035afe7113767b7db71949271f6a62d9c60f55860001b8c8c8c8c8c610ad2576000610ad5565b60015b604051602001610aea96959493929190613c2b565b604051602081830303815290604052611efd565b9050610b0c898989896123f9565b8415610b4f5780806020019051810190610b269190613535565b8094508193505050610b40898989898660200151886125ed565b610b4a8983612121565b610b5e565b610b5d898989895a866125ed565b5b505050505050505050565b6000600160008473ffffffffffffffffffffffffffffffffffffffff1673ffffffffffffffffffffffffffffffffffffffff16815260200190815260200160002060008373ffffffffffffffffffffffffffffffffffffffff1673ffffffffffffffffffffffffffffffffffffffff16815260200190815260200160002060009054906101000a900460ff16905092915050565b8473ffffffffffffffffffffffffffffffffffffffff163373ffffffffffffffffffffffffffffffffffffffff161480610c3d5750610c3c8533610b69565b5b610c92576040517f08c379a000000000000000000000000000000000000000000000000000000000815260040180806020018281038252602a8152602001806140af602a913960400191505060405180910390fd5b600073ffffffffffffffffffffffffffffffffffffffff168473ffffffffffffffffffffffffffffffffffffffff161415610d18576040517f08c379a000000000000000000000000000000000000000000000000000000000815260040180806020018281038252602b81526020018061404d602b913960400191505060405180910390fd5b610d24858585856123f9565b610d32858585855a866125ed565b5050505050565b6060610dac86837ff5d4c820494c8595de274c7ff619bead38aac4fbc3d143b5bf956aa4b84fa52460001b898989610d72576000610d75565b60015b89610d81576000610d84565b60015b604051602001610d98959493929190613bd8565b604051602081830303815290604052611efd565b905083600160008873ffffffffffffffffffffffffffffffffffffffff1673ffffffffffffffffffffffffffffffffffffffff16815260200190815260200160002060008773ffffffffffffffffffffffffffffffffffffffff1673ffffffffffffffffffffffffffffffffffffffff16815260200190815260200160002060006101000a81548160ff0219169083151502179055508473ffffffffffffffffffffffffffffffffffffffff168673ffffffffffffffffffffffffffffffffffffffff167f17307eab39ab6107e8899845ad3d59bd9653f200f220920489ca2b5937696c3186604051610e9f9190613b5c565b60405180910390a38215610ed757610eb5612b71565b81806020019051810190610ec991906134f4565b9050610ed58782612121565b505b505050505050565b600080825111610f3a576040517f08c379a00000000000000000000000000000000000000000000000000000000081526004018080602001828103825260438152602001806142736043913960600191505060405180910390fd5b600073ffffffffffffffffffffffffffffffffffffffff168573ffffffffffffffffffffffffffffffffffffffff161415610fc0576040517f08c379a00000000000000000000000000000000000000000000000000000000081526004018080602001828103825260338152602001806142116033913960400191505060405180910390fd5b6000610fcb836127fd565b60f81c9050600580811115610fdc57fe5b60ff168160ff1610611039576040517f08c379a000000000000000000000000000000000000000000000000000000000815260040180806020018281038252603a81526020018061410e603a913960400191505060405180910390fd5b60008160ff16600581111561104a57fe5b90506000806000806000600581111561105f57fe5b85600581111561106b57fe5b14156110c2576040517f08c379a00000000000000000000000000000000000000000000000000000000081526004018080602001828103825260368152602001806141486036913960400191505060405180910390fd5b600160058111156110cf57fe5b8560058111156110db57fe5b141561122657606188511461113b576040517f08c379a000000000000000000000000000000000000000000000000000000000815260040180806020018281038252603781526020018061417e6037913960400191505060405180910390fd5b61114f60008961288390919063ffffffff16565b925061116560208961288390919063ffffffff16565b91508760408151811061117457fe5b602001015160f81c60f81b60f81c935060018a85858560405160008152602001604052604051808581526020018460ff1681526020018381526020018281526020019450505050506020604051602081039080840390855afa1580156111de573d6000803e3d6000fd5b5050506020604051035190508073ffffffffffffffffffffffffffffffffffffffff168b73ffffffffffffffffffffffffffffffffffffffff16149650505050505050611766565b6002600581111561123357fe5b85600581111561123f57fe5b14156113d857606188511461129f576040517f08c379a000000000000000000000000000000000000000000000000000000000815260040180806020018281038252603781526020018061417e6037913960400191505060405180910390fd5b6112b360008961288390919063ffffffff16565b92506112c960208961288390919063ffffffff16565b9150876040815181106112d857fe5b602001015160f81c60f81b60f81c935060018a60405160200180807f19457468657265756d205369676e6564204d6573736167653a0a333200000000815250601c018281526020019150506040516020818303038152906040528051906020012085858560405160008152602001604052604051808581526020018460ff1681526020018381526020018281526020019450505050506020604051602081039080840390855afa158015611390573d6000803e3d6000fd5b5050506020604051035190508073ffffffffffffffffffffffffffffffffffffffff168b73ffffffffffffffffffffffffffffffffffffffff16149650505050505050611766565b600360058111156113e557fe5b8560058111156113f157fe5b14156115a9578a73ffffffffffffffffffffffffffffffffffffffff166320c13b0b8a8a6040518363ffffffff1660e01b8152600401808060200180602001838103835285818151815260200191508051906020019080838360005b8381101561146857808201518184015260208101905061144d565b50505050905090810190601f1680156114955780820380516001836020036101000a031916815260200191505b50838103825284818151815260200191508051906020019080838360005b838110156114ce5780820151818401526020810190506114b3565b50505050905090810190601f1680156114fb5780820380516001836020036101000a031916815260200191505b5094505050505060206040518083038186803b15801561151a57600080fd5b505afa15801561152e573d6000803e3d6000fd5b505050506040513d602081101561154457600080fd5b81019080805190602001909291905050507bffffffffffffffffffffffffffffffffffffffffffffffffffffffff19166320c13b0b60e01b7bffffffffffffffffffffffffffffffffffffffffffffffffffffffff1916149650505050505050611766565b600460058111156115b657fe5b8560058111156115c257fe5b1415611715578a73ffffffffffffffffffffffffffffffffffffffff16631626ba7e8b8a6040518363ffffffff1660e01b81526004018083815260200180602001828103825283818151815260200191508051906020019080838360005b8381101561163b578082015181840152602081019050611620565b50505050905090810190601f1680156116685780820380516001836020036101000a031916815260200191505b50935050505060206040518083038186803b15801561168657600080fd5b505afa15801561169a573d6000803e3d6000fd5b505050506040513d60208110156116b057600080fd5b81019080805190602001909291905050507bffffffffffffffffffffffffffffffffffffffffffffffffffffffff1916631626ba7e60e01b7bffffffffffffffffffffffffffffffffffffffffffffffffffffffff1916149650505050505050611766565b6040517f08c379a000000000000000000000000000000000000000000000000000000000815260040180806020018281038252603a81526020018061410e603a913960400191505060405180910390fd5b949350505050565b60006301ffc9a760e01b7bffffffffffffffffffffffffffffffffffffffffffffffffffffffff1916827bffffffffffffffffffffffffffffffffffffffffffffffffffffffff1916149050919050565b60606000821415611807576040518060400160405280600181526020017f30000000000000000000000000000000000000000000000000000000000000008152509050611904565b6000829050600083905060005b60008314611836578080600101915050600a838161182e57fe5b049250611814565b60608167ffffffffffffffff8111801561184f57600080fd5b506040519080825280601f01601f1916602001820160405280156118825781602001600182028036833780820191505090505b50905060006001830390505b600084146118fb57600a84816118a057fe5b0660300160f81b828280600190039350815181106118ba57fe5b60200101907effffffffffffffffffffffffffffffffffffffffffffffffffffffffffffff1916908160001a905350600a84816118f357fe5b04935061188e565b81955050505050505b919050565b8051825114611963576040517f08c379a00000000000000000000000000000000000000000000000000000000081526004018080602001828103825260358152602001806140d96035913960400191505060405180910390fd5b60008251905060005b81811015611b5d576119fc83828151811061198357fe5b60200260200101516000808973ffffffffffffffffffffffffffffffffffffffff1673ffffffffffffffffffffffffffffffffffffffff16815260200190815260200160002060008785815181106119d757fe5b60200260200101518152602001908152602001600020546128f490919063ffffffff16565b6000808873ffffffffffffffffffffffffffffffffffffffff1673ffffffffffffffffffffffffffffffffffffffff1681526020019081526020016000206000868481518110611a4857fe5b6020026020010151815260200190815260200160002081905550611aea838281518110611a7157fe5b60200260200101516000808873ffffffffffffffffffffffffffffffffffffffff1673ffffffffffffffffffffffffffffffffffffffff1681526020019081526020016000206000878581518110611ac557fe5b602002602001015181526020019081526020016000205461297d90919063ffffffff16565b6000808773ffffffffffffffffffffffffffffffffffffffff1673ffffffffffffffffffffffffffffffffffffffff1681526020019081526020016000206000868481518110611b3657fe5b6020026020010151815260200190815260200160002081905550808060010191505061196c565b508373ffffffffffffffffffffffffffffffffffffffff168573ffffffffffffffffffffffffffffffffffffffff163373ffffffffffffffffffffffffffffffffffffffff167f4a39dc06d4c0dbc64b70af90fd698a233a518aa5d07e595d983b8c0526c8f7fb8686604051808060200180602001838103835285818151815260200191508051906020019060200280838360005b83811015611c0d578082015181840152602081019050611bf2565b50505050905001838103825284818151815260200191508051906020019060200280838360005b83811015611c4f578082015181840152602081019050611c34565b5050505090500194505050505060405180910390a45050505050565b611c8a8573ffffffffffffffffffffffffffffffffffffffff16612a05565b15611ef55760008573ffffffffffffffffffffffffffffffffffffffff1663bc197c8184338a8989886040518763ffffffff1660e01b8152600401808673ffffffffffffffffffffffffffffffffffffffff1681526020018573ffffffffffffffffffffffffffffffffffffffff168152602001806020018060200180602001848103845287818151815260200191508051906020019060200280838360005b83811015611d45578082015181840152602081019050611d2a565b50505050905001848103835286818151815260200191508051906020019060200280838360005b83811015611d87578082015181840152602081019050611d6c565b50505050905001848103825285818151815260200191508051906020019080838360005b83811015611dc6578082015181840152602081019050611dab565b50505050905090810190601f168015611df35780820380516001836020036101000a031916815260200191505b5098505050505050505050602060405180830381600088803b158015611e1857600080fd5b5087f1158015611e2c573d6000803e3d6000fd5b50505050506040513d6020811015611e4357600080fd5b8101908080519060200190929190505050905063bc197c8160e01b7bffffffffffffffffffffffffffffffffffffffffffffffffffffffff1916817bffffffffffffffffffffffffffffffffffffffffffffffffffffffff191614611ef3576040517f08c379a000000000000000000000000000000000000000000000000000000000815260040180806020018281038252603f8152602001806142b6603f913960400191505060405180910390fd5b505b505050505050565b60608083806020019051810190611f149190613488565b80935081925050506000600360008773ffffffffffffffffffffffffffffffffffffffff1673ffffffffffffffffffffffffffffffffffffffff1681526020019081526020016000205490506000611f7660418461288390919063ffffffff16565b60001c9050818110158015611f8d57506064820181105b611fcc576040517f08c379a0000000000000000000000000000000000000000000000000000000008152600401611fc390613d2e565b60405180910390fd5b600061200886838780519060200120604051602001611fed93929190613a3d565b60405160208183030381529060405280519060200120612a4a565b9050606086838760405160200161202193929190613a76565b604051602081830303815290604052905060018301600360008b73ffffffffffffffffffffffffffffffffffffffff1673ffffffffffffffffffffffffffffffffffffffff168152602001908152602001600020819055508873ffffffffffffffffffffffffffffffffffffffff167fb861b7bdbe611a846ab271b8d2810391bc8b5a968f390c322438ecab66bccf59600185016040516120c29190613d6e565b60405180910390a26120d689838388610edf565b612115576040517f08c379a000000000000000000000000000000000000000000000000000000000815260040161210c90613cce565b60405180910390fd5b50505050509392505050565b600061213082606001516127fd565b60f81c905060028081111561214157fe5b60ff168160ff1610612188576040517f08c379a000000000000000000000000000000000000000000000000000000000815260040161217f90613d4e565b60405180910390fd5b60008160ff16600281111561219957fe5b905060008060008086600001519050600073ffffffffffffffffffffffffffffffffffffffff16876040015173ffffffffffffffffffffffffffffffffffffffff16146121ea5786604001516121ec565b335b9250600060028111156121fb57fe5b85600281111561220757fe5b14156123065786606001518060200190518101906122259190612ef8565b80935081955050503073ffffffffffffffffffffffffffffffffffffffff168473ffffffffffffffffffffffffffffffffffffffff16141561228f5761226d888484846123f9565b61228a8884845a85604051806020016040528060008152506125ed565b612301565b8373ffffffffffffffffffffffffffffffffffffffff1663f242432a898585856040518563ffffffff1660e01b81526004016122ce9493929190613ae2565b600060405180830381600087803b1580156122e857600080fd5b505af11580156122fc573d6000803e3d6000fd5b505050505b6123ef565b866060015180602001905181019061231e9190612ecf565b93508373ffffffffffffffffffffffffffffffffffffffff166323b872dd8985846040518463ffffffff1660e01b815260040161235d93929190613aab565b602060405180830381600087803b15801561237757600080fd5b505af115801561238b573d6000803e3d6000fd5b505050506040513d601f19601f820116820180604052508101906123af9190613436565b6123ee576040517f08c379a00000000000000000000000000000000000000000000000000000000081526004016123e590613cee565b60405180910390fd5b5b5050505050505050565b61245b816000808773ffffffffffffffffffffffffffffffffffffffff1673ffffffffffffffffffffffffffffffffffffffff1681526020019081526020016000206000858152602001908152602001600020546128f490919063ffffffff16565b6000808673ffffffffffffffffffffffffffffffffffffffff1673ffffffffffffffffffffffffffffffffffffffff168152602001908152602001600020600084815260200190815260200160002081905550612510816000808673ffffffffffffffffffffffffffffffffffffffff1673ffffffffffffffffffffffffffffffffffffffff16815260200190815260200160002060008581526020019081526020016000205461297d90919063ffffffff16565b6000808573ffffffffffffffffffffffffffffffffffffffff1673ffffffffffffffffffffffffffffffffffffffff1681526020019081526020016000206000848152602001908152602001600020819055508273ffffffffffffffffffffffffffffffffffffffff168473ffffffffffffffffffffffffffffffffffffffff163373ffffffffffffffffffffffffffffffffffffffff167fc3d58168c5ae7397731d063d5bbf3d657854427343f4c083240f7aacaa2d0f628585604051808381526020018281526020019250505060405180910390a450505050565b61260c8573ffffffffffffffffffffffffffffffffffffffff16612a05565b156127f55760008573ffffffffffffffffffffffffffffffffffffffff1663f23a6e6184338a8989886040518763ffffffff1660e01b8152600401808673ffffffffffffffffffffffffffffffffffffffff1681526020018573ffffffffffffffffffffffffffffffffffffffff16815260200184815260200183815260200180602001828103825283818151815260200191508051906020019080838360005b838110156126c85780820151818401526020810190506126ad565b50505050905090810190601f1680156126f55780820380516001836020036101000a031916815260200191505b509650505050505050602060405180830381600088803b15801561271857600080fd5b5087f115801561272c573d6000803e3d6000fd5b50505050506040513d602081101561274357600080fd5b8101908080519060200190929190505050905063f23a6e6160e01b7bffffffffffffffffffffffffffffffffffffffffffffffffffffffff1916817bffffffffffffffffffffffffffffffffffffffffffffffffffffffff1916146127f3576040517f08c379a000000000000000000000000000000000000000000000000000000000815260040180806020018281038252603a8152602001806142f5603a913960400191505060405180910390fd5b505b505050505050565b600080825111612858576040517f08c379a00000000000000000000000000000000000000000000000000000000081526004018080602001828103825260378152602001806140786037913960400191505060405180910390fd5b8160018351038151811061286857fe5b602001015160f81c60f81b9050600182510380835250919050565b600060208201835110156128e2576040517f08c379a000000000000000000000000000000000000000000000000000000000815260040180806020018281038252603c81526020018061432f603c913960400191505060405180910390fd5b60208201915081830151905092915050565b60008282111561296c576040517f08c379a00000000000000000000000000000000000000000000000000000000081526004018080602001828103825260178152602001807f536166654d617468237375623a20554e444552464c4f5700000000000000000081525060200191505060405180910390fd5b600082840390508091505092915050565b6000808284019050838110156129fb576040517f08c379a00000000000000000000000000000000000000000000000000000000081526004018080602001828103825260168152602001807f536166654d617468236164643a204f564552464c4f570000000000000000000081525060200191505060405180910390fd5b8091505092915050565b600080823f90506000801b8114158015612a4257507fc5d2460186f7233c927e7db2dcc703c0e500b653ca82273b7bfad8045d85a47060001b8114155b915050919050565b60006040518060400160405280600281526020017f19010000000000000000000000000000000000000000000000000000000000008152507f035aff83d86937d35b32e04f0ddc6ff469290eef2f1b692d8a815c89404d474960001b30604051602001808381526020018273ffffffffffffffffffffffffffffffffffffffff1681526020019250505060405160208183030381529060405280519060200120836040516020018084805190602001908083835b60208310612b215780518252602082019150602081019050602083039250612afe565b6001836020036101000a0380198251168184511680821785525050505050509050018381526020018281526020019350505050604051602081830303815290604052805190602001209050919050565b60405180608001604052806000815260200160008152602001600073ffffffffffffffffffffffffffffffffffffffff168152602001606081525090565b600081359050612bbe81613fc2565b92915050565b600081519050612bd381613fc2565b92915050565b600081519050612be881613fd9565b92915050565b600082601f830112612bff57600080fd5b8135612c12612c0d82613dba565b613d89565b91508181835260208401935060208101905083856020840282011115612c3757600080fd5b60005b83811015612c675781612c4d8882612baf565b845260208401935060208301925050600181019050612c3a565b5050505092915050565b600082601f830112612c8257600080fd5b8135612c95612c9082613de6565b613d89565b91508181835260208401935060208101905083856020840282011115612cba57600080fd5b60005b83811015612cea5781612cd08882612e7c565b845260208401935060208301925050600181019050612cbd565b5050505092915050565b600081359050612d0381613ff0565b92915050565b600081519050612d1881613ff0565b92915050565b600081359050612d2d81614007565b92915050565b600081359050612d428161401e565b92915050565b600082601f830112612d5957600080fd5b8135612d6c612d6782613e12565b613d89565b91508082526020830160208301858383011115612d8857600080fd5b612d93838284613f59565b50505092915050565b600082601f830112612dad57600080fd5b8151612dc0612dbb82613e12565b613d89565b91508082526020830160208301858383011115612ddc57600080fd5b612de7838284613f68565b50505092915050565b600060808284031215612e0257600080fd5b612e0c6080613d89565b90506000612e1c84828501612e91565b6000830152506020612e3084828501612e91565b6020830152506040612e4484828501612bc4565b604083015250606082015167ffffffffffffffff811115612e6457600080fd5b612e7084828501612d9c565b60608301525092915050565b600081359050612e8b81614035565b92915050565b600081519050612ea081614035565b92915050565b600060208284031215612eb857600080fd5b6000612ec684828501612baf565b91505092915050565b600060208284031215612ee157600080fd5b6000612eef84828501612bd9565b91505092915050565b60008060408385031215612f0b57600080fd5b6000612f1985828601612bd9565b9250506020612f2a85828601612e91565b9150509250929050565b60008060408385031215612f4757600080fd5b6000612f5585828601612baf565b9250506020612f6685828601612baf565b9150509250929050565b60008060008060008060c08789031215612f8957600080fd5b6000612f9789828a01612baf565b9650506020612fa889828a01612baf565b955050604087013567ffffffffffffffff811115612fc557600080fd5b612fd189828a01612c71565b945050606087013567ffffffffffffffff811115612fee57600080fd5b612ffa89828a01612c71565b935050608061300b89828a01612cf4565b92505060a087013567ffffffffffffffff81111561302857600080fd5b61303489828a01612d48565b9150509295509295509295565b600080600080600060a0868803121561305957600080fd5b600061306788828901612baf565b955050602061307888828901612baf565b945050604086013567ffffffffffffffff81111561309557600080fd5b6130a188828901612c71565b935050606086013567ffffffffffffffff8111156130be57600080fd5b6130ca88828901612c71565b925050608086013567ffffffffffffffff8111156130e757600080fd5b6130f388828901612d48565b9150509295509295909350565b600080600080600060a0868803121561311857600080fd5b600061312688828901612baf565b955050602061313788828901612baf565b945050604061314888828901612cf4565b935050606061315988828901612cf4565b925050608086013567ffffffffffffffff81111561317657600080fd5b61318288828901612d48565b9150509295509295909350565b60008060008060008060c087890312156131a857600080fd5b60006131b689828a01612baf565b96505060206131c789828a01612baf565b95505060406131d889828a01612e7c565b94505060606131e989828a01612e7c565b93505060806131fa89828a01612cf4565b92505060a087013567ffffffffffffffff81111561321757600080fd5b61322389828a01612d48565b9150509295509295509295565b600080600080600060a0868803121561324857600080fd5b600061325688828901612baf565b955050602061326788828901612baf565b945050604061327888828901612e7c565b935050606061328988828901612e7c565b925050608086013567ffffffffffffffff8111156132a657600080fd5b6132b288828901612d48565b9150509295509295909350565b600080604083850312156132d257600080fd5b60006132e085828601612baf565b92505060206132f185828601612cf4565b9150509250929050565b6000806000806080858703121561331157600080fd5b600061331f87828801612baf565b945050602061333087828801612d1e565b935050604085013567ffffffffffffffff81111561334d57600080fd5b61335987828801612d48565b925050606085013567ffffffffffffffff81111561337657600080fd5b61338287828801612d48565b91505092959194509250565b600080604083850312156133a157600080fd5b60006133af85828601612baf565b92505060206133c085828601612e7c565b9150509250929050565b600080604083850312156133dd57600080fd5b600083013567ffffffffffffffff8111156133f757600080fd5b61340385828601612bee565b925050602083013567ffffffffffffffff81111561342057600080fd5b61342c85828601612c71565b9150509250929050565b60006020828403121561344857600080fd5b600061345684828501612d09565b91505092915050565b60006020828403121561347157600080fd5b600061347f84828501612d33565b91505092915050565b6000806040838503121561349b57600080fd5b600083015167ffffffffffffffff8111156134b557600080fd5b6134c185828601612d9c565b925050602083015167ffffffffffffffff8111156134de57600080fd5b6134ea85828601612d9c565b9150509250929050565b60006020828403121561350657600080fd5b600082015167ffffffffffffffff81111561352057600080fd5b61352c84828501612df0565b91505092915050565b6000806040838503121561354857600080fd5b600083015167ffffffffffffffff81111561356257600080fd5b61356e85828601612df0565b925050602083015167ffffffffffffffff81111561358b57600080fd5b61359785828601612d9c565b9150509250929050565b6000602082840312156135b357600080fd5b60006135c184828501612e7c565b91505092915050565b60006135d683836139e2565b60208301905092915050565b60006135ee8383613a00565b60208301905092915050565b61360381613ec9565b82525050565b600061361482613e52565b61361e8185613e80565b935061362983613e42565b8060005b8381101561365a57815161364188826135ca565b975061364c83613e73565b92505060018101905061362d565b5085935050505092915050565b600061367282613e52565b61367c8185613e91565b935061368783613e42565b8060005b838110156136b857815161369f88826135e2565b97506136aa83613e73565b92505060018101905061368b565b5085935050505092915050565b6136ce81613eed565b82525050565b6136dd81613ef9565b82525050565b6136f46136ef82613ef9565b613f9b565b82525050565b600061370582613e5d565b61370f8185613ead565b935061371f818560208601613f68565b80840191505092915050565b600061373682613e68565b6137408185613eb8565b9350613750818560208601613f68565b61375981613fb1565b840191505092915050565b6000613771603383613eb8565b91507f455243313135354d657461236d657461536166655472616e7366657246726f6d60008301527f3a20494e56414c49445f524543495049454e54000000000000000000000000006020830152604082019050919050565b60006137d7603383613eb8565b91507f455243313135354d657461235f7369676e617475726556616c69646174696f6e60008301527f3a20494e56414c49445f5349474e4154555245000000000000000000000000006020830152604082019050919050565b600061383d603283613eb8565b91507f455243313135354d657461235f7472616e736665724761734665653a2045524360008301527f32305f5452414e534645525f4641494c454400000000000000000000000000006020830152604082019050919050565b60006138a3603883613eb8565b91507f455243313135354d657461236d6574615361666542617463685472616e73666560008301527f7246726f6d3a20494e56414c49445f524543495049454e5400000000000000006020830152604082019050919050565b6000613909600083613e9c565b9150600082019050919050565b6000613923602f83613eb8565b91507f455243313135354d657461235f7369676e617475726556616c69646174696f6e60008301527f3a20494e56414c49445f4e4f4e434500000000000000000000000000000000006020830152604082019050919050565b6000613989602e83613eb8565b91507f455243313135354d657461235f7472616e736665724761734665653a20554e5360008301527f5550504f525445445f544f4b454e0000000000000000000000000000000000006020830152604082019050919050565b6139eb81613f4f565b82525050565b6139fa81613f4f565b82525050565b613a0981613f4f565b82525050565b613a20613a1b82613f4f565b613fa5565b82525050565b6000613a328284613667565b915081905092915050565b6000613a4982866136fa565b9150613a558285613a0f565b602082019150613a6582846136e3565b602082019150819050949350505050565b6000613a8282866136fa565b9150613a8e8285613a0f565b602082019150613a9e82846136fa565b9150819050949350505050565b6000606082019050613ac060008301866135fa565b613acd60208301856135fa565b613ada60408301846139f1565b949350505050565b600060a082019050613af760008301876135fa565b613b0460208301866135fa565b613b1160408301856139f1565b613b1e60608301846139f1565b8181036080830152613b2f816138fc565b905095945050505050565b60006020820190508181036000830152613b548184613609565b905092915050565b6000602082019050613b7160008301846136c5565b92915050565b600060c082019050613b8c60008301896136d4565b613b9960208301886135fa565b613ba660408301876135fa565b613bb360608301866136d4565b613bc060808301856136d4565b613bcd60a08301846139f1565b979650505050505050565b600060a082019050613bed60008301886136d4565b613bfa60208301876135fa565b613c0760408301866135fa565b613c1460608301856139f1565b613c2160808301846139f1565b9695505050505050565b600060c082019050613c4060008301896136d4565b613c4d60208301886135fa565b613c5a60408301876135fa565b613c6760608301866139f1565b613c7460808301856139f1565b613c8160a08301846139f1565b979650505050505050565b60006020820190508181036000830152613ca6818461372b565b905092915050565b60006020820190508181036000830152613cc781613764565b9050919050565b60006020820190508181036000830152613ce7816137ca565b9050919050565b60006020820190508181036000830152613d0781613830565b9050919050565b60006020820190508181036000830152613d2781613896565b9050919050565b60006020820190508181036000830152613d4781613916565b9050919050565b60006020820190508181036000830152613d678161397c565b9050919050565b6000602082019050613d8360008301846139f1565b92915050565b6000604051905081810181811067ffffffffffffffff82111715613db057613daf613faf565b5b8060405250919050565b600067ffffffffffffffff821115613dd557613dd4613faf565b5b602082029050602081019050919050565b600067ffffffffffffffff821115613e0157613e00613faf565b5b602082029050602081019050919050565b600067ffffffffffffffff821115613e2d57613e2c613faf565b5b601f19601f8301169050602081019050919050565b6000819050602082019050919050565b600081519050919050565b600081519050919050565b600081519050919050565b6000602082019050919050565b600082825260208201905092915050565b600081905092915050565b600082825260208201905092915050565b600081905092915050565b600082825260208201905092915050565b6000613ed482613f2f565b9050919050565b6000613ee682613f2f565b9050919050565b60008115159050919050565b6000819050919050565b60007fffffffff0000000000000000000000000000000000000000000000000000000082169050919050565b600073ffffffffffffffffffffffffffffffffffffffff82169050919050565b6000819050919050565b82818337600083830152505050565b60005b83811015613f86578082015181840152602081019050613f6b565b83811115613f95576000848401525b50505050565b6000819050919050565b6000819050919050565bfe5b6000601f19601f8301169050919050565b613fcb81613ec9565b8114613fd657600080fd5b50565b613fe281613edb565b8114613fed57600080fd5b50565b613ff981613eed565b811461400457600080fd5b50565b61401081613ef9565b811461401b57600080fd5b50565b61402781613f03565b811461403257600080fd5b50565b61403e81613f4f565b811461404957600080fd5b5056fe4552433131353523736166655472616e7366657246726f6d3a20494e56414c49445f524543495049454e544c6962427974657323706f704c617374427974653a20475245415445525f5448414e5f5a45524f5f4c454e4754485f52455155495245444552433131353523736166655472616e7366657246726f6d3a20494e56414c49445f4f50455241544f5245524331313535235f7361666542617463685472616e7366657246726f6d3a20494e56414c49445f4152524159535f4c454e4754485369676e617475726556616c696461746f7223697356616c69645369676e61747572653a20554e535550504f525445445f5349474e41545552455369676e617475726556616c696461746f7223697356616c69645369676e61747572653a20494c4c4547414c5f5349474e41545552455369676e617475726556616c696461746f7223697356616c69645369676e61747572653a204c454e4754485f39375f524551554952454445524331313535237361666542617463685472616e7366657246726f6d3a20494e56414c49445f524543495049454e54455243313135352362616c616e63654f6642617463683a20494e56414c49445f41525241595f4c454e4754485369676e617475726556616c696461746f7223697356616c69645369676e61747572653a20494e56414c49445f5349474e455245524331313535237361666542617463685472616e7366657246726f6d3a20494e56414c49445f4f50455241544f525369676e617475726556616c696461746f7223697356616c69645369676e61747572653a204c454e4754485f475245415445525f5448414e5f305f524551554952454445524331313535235f63616c6c6f6e45524331313535426174636852656365697665643a20494e56414c49445f4f4e5f524543454956455f4d45535341474545524331313535235f63616c6c6f6e4552433131353552656365697665643a20494e56414c49445f4f4e5f524543454956455f4d4553534147454c696242797465732372656164427974657333323a20475245415445525f4f525f455155414c5f544f5f33325f4c454e4754485f5245515549524544a2646970667358221220f173d64ee6528dfea74aa1255606c2034e8117bcf59eb2af47512804ba726aa464736f6c63430007040033",
  "immutableReferences": {},
  "source": "// SPDX-License-Identifier: Apache-2.0\npragma solidity 0.7.4;\npragma experimental ABIEncoderV2;\n\nimport \"./ERC1155.sol\";\nimport \"../../interfaces/IERC20.sol\";\nimport \"../../interfaces/IERC1155.sol\";\nimport \"../../utils/LibBytes.sol\";\nimport \"../../utils/SignatureValidator.sol\";\n\n\n/**\n * @dev ERC-1155 with native metatransaction methods. These additional functions allow users\n *      to presign function calls and allow third parties to execute these on their behalf\n */\ncontract ERC1155Meta is ERC1155, SignatureValidator {\n  using LibBytes for bytes;\n\n  /***********************************|\n  |       Variables and Structs       |\n  |__________________________________*/\n\n  /**\n   * Gas Receipt\n   *   feeTokenData : (bool, address, ?unit256)\n   *     1st element should be the address of the token\n   *     2nd argument (if ERC-1155) should be the ID of the token\n   *     Last element should be a 0x0 if ERC-20 and 0x1 for ERC-1155\n   */\n  struct GasReceipt {\n    uint256 gasFee;           // Fixed cost for the tx\n    uint256 gasLimitCallback; // Maximum amount of gas the callback in transfer functions can use\n    address feeRecipient;     // Address to send payment to\n    bytes feeTokenData;       // Data for token to pay for gas\n  }\n\n  // Which token standard is used to pay gas fee\n  enum FeeTokenType {\n    ERC1155,    // 0x00, ERC-1155 token - DEFAULT\n    ERC20,      // 0x01, ERC-20 token\n    NTypes      // 0x02, number of signature types. Always leave at end.\n  }\n\n  // Signature nonce per address\n  mapping (address => uint256) internal nonces;\n\n\n  /***********************************|\n  |               Events              |\n  |__________________________________*/\n\n  event NonceChange(address indexed signer, uint256 newNonce);\n\n\n  /****************************************|\n  |     Public Meta Transfer Functions     |\n  |_______________________________________*/\n\n  /**\n   * @notice Allows anyone with a valid signature to transfer _amount amount of a token _id on the bahalf of _from\n   * @param _from     Source address\n   * @param _to       Target address\n   * @param _id       ID of the token type\n   * @param _amount   Transfered amount\n   * @param _isGasFee Whether gas is reimbursed to executor or not\n   * @param _data     Encodes a meta transfer indicator, signature, gas payment receipt and extra transfer data\n   *   _data should be encoded as (\n   *   (bytes32 r, bytes32 s, uint8 v, uint256 nonce, SignatureType sigType),\n   *   (GasReceipt g, ?bytes transferData)\n   * )\n   *   i.e. high level encoding should be (bytes, bytes), where the latter bytes array is a nested bytes array\n   */\n  function metaSafeTransferFrom(\n    address _from,\n    address _to,\n    uint256 _id,\n    uint256 _amount,\n    bool _isGasFee,\n    bytes memory _data)\n    public\n  {\n    require(_to != address(0), \"ERC1155Meta#metaSafeTransferFrom: INVALID_RECIPIENT\");\n\n    // Initializing\n    bytes memory transferData;\n    GasReceipt memory gasReceipt;\n\n    // Verify signature and extract the signed data\n    bytes memory signedData = _signatureValidation(\n      _from,\n      _data,\n      abi.encode(\n        META_TX_TYPEHASH,\n        _from, // Address as uint256\n        _to,   // Address as uint256\n        _id,\n        _amount,\n        _isGasFee ? uint256(1) : uint256(0)  // Boolean as uint256\n      )\n    );\n\n    // Transfer asset\n    _safeTransferFrom(_from, _to, _id, _amount);\n\n    // If Gas is being reimbursed\n    if (_isGasFee) {\n      (gasReceipt, transferData) = abi.decode(signedData, (GasReceipt, bytes));\n\n      // We need to somewhat protect relayers against gas griefing attacks in recipient contract.\n      // Hence we only pass the gasLimit to the recipient such that the relayer knows the griefing\n      // limit. Nothing can prevent the receiver to revert the transaction as close to the gasLimit as\n      // possible, but the relayer can now only accept meta-transaction gasLimit within a certain range.\n      _callonERC1155Received(_from, _to, _id, _amount, gasReceipt.gasLimitCallback, transferData);\n\n      // Transfer gas cost\n      _transferGasFee(_from, gasReceipt);\n\n    } else {\n      _callonERC1155Received(_from, _to, _id, _amount, gasleft(), signedData);\n    }\n  }\n\n  /**\n   * @notice Allows anyone with a valid signature to transfer multiple types of tokens on the bahalf of _from\n   * @param _from     Source addresses\n   * @param _to       Target addresses\n   * @param _ids      IDs of each token type\n   * @param _amounts  Transfer amounts per token type\n   * @param _isGasFee Whether gas is reimbursed to executor or not\n   * @param _data     Encodes a meta transfer indicator, signature, gas payment receipt and extra transfer data\n   *   _data should be encoded as (\n   *   (bytes32 r, bytes32 s, uint8 v, uint256 nonce, SignatureType sigType),\n   *   (GasReceipt g, ?bytes transferData)\n   * )\n   *   i.e. high level encoding should be (bytes, bytes), where the latter bytes array is a nested bytes array\n   */\n  function metaSafeBatchTransferFrom(\n    address _from,\n    address _to,\n    uint256[] memory _ids,\n    uint256[] memory _amounts,\n    bool _isGasFee,\n    bytes memory _data)\n    public\n  {\n    require(_to != address(0), \"ERC1155Meta#metaSafeBatchTransferFrom: INVALID_RECIPIENT\");\n\n    // Initializing\n    bytes memory transferData;\n    GasReceipt memory gasReceipt;\n\n    // Verify signature and extract the signed data\n    bytes memory signedData = _signatureValidation(\n      _from,\n      _data,\n      abi.encode(\n        META_BATCH_TX_TYPEHASH,\n        _from, // Address as uint256\n        _to,   // Address as uint256\n        keccak256(abi.encodePacked(_ids)),\n        keccak256(abi.encodePacked(_amounts)),\n        _isGasFee ? uint256(1) : uint256(0)  // Boolean as uint256\n      )\n    );\n\n    // Transfer assets\n    _safeBatchTransferFrom(_from, _to, _ids, _amounts);\n\n    // If gas fee being reimbursed\n    if (_isGasFee) {\n      (gasReceipt, transferData) = abi.decode(signedData, (GasReceipt, bytes));\n\n      // We need to somewhat protect relayers against gas griefing attacks in recipient contract.\n      // Hence we only pass the gasLimit to the recipient such that the relayer knows the griefing\n      // limit. Nothing can prevent the receiver to revert the transaction as close to the gasLimit as\n      // possible, but the relayer can now only accept meta-transaction gasLimit within a certain range.\n      _callonERC1155BatchReceived(_from, _to, _ids, _amounts, gasReceipt.gasLimitCallback, transferData);\n\n      // Handle gas reimbursement\n      _transferGasFee(_from, gasReceipt);\n\n    } else {\n      _callonERC1155BatchReceived(_from, _to, _ids, _amounts, gasleft(), signedData);\n    }\n  }\n\n\n  /***********************************|\n  |         Operator Functions        |\n  |__________________________________*/\n\n  /**\n   * @notice Approve the passed address to spend on behalf of _from if valid signature is provided\n   * @param _owner     Address that wants to set operator status  _spender\n   * @param _operator  Address to add to the set of authorized operators\n   * @param _approved  True if the operator is approved, false to revoke approval\n   * @param _isGasFee  Whether gas will be reimbursed or not, with vlid signature\n   * @param _data      Encodes signature and gas payment receipt\n   *   _data should be encoded as (\n   *     (bytes32 r, bytes32 s, uint8 v, uint256 nonce, SignatureType sigType),\n   *     (GasReceipt g)\n   *   )\n   *   i.e. high level encoding should be (bytes, bytes), where the latter bytes array is a nested bytes array\n   */\n  function metaSetApprovalForAll(\n    address _owner,\n    address _operator,\n    bool _approved,\n    bool _isGasFee,\n    bytes memory _data)\n    public\n  {\n    // Verify signature and extract the signed data\n    bytes memory signedData = _signatureValidation(\n      _owner,\n      _data,\n      abi.encode(\n        META_APPROVAL_TYPEHASH,\n        _owner,                              // Address as uint256\n        _operator,                           // Address as uint256\n        _approved ? uint256(1) : uint256(0), // Boolean as uint256\n        _isGasFee ? uint256(1) : uint256(0)  // Boolean as uint256\n      )\n    );\n\n    // Update operator status\n    operators[_owner][_operator] = _approved;\n\n    // Emit event\n    emit ApprovalForAll(_owner, _operator, _approved);\n\n    // Handle gas reimbursement\n    if (_isGasFee) {\n      GasReceipt memory gasReceipt = abi.decode(signedData, (GasReceipt));\n      _transferGasFee(_owner, gasReceipt);\n    }\n  }\n\n\n  /****************************************|\n  |      Signature Validation Functions     |\n  |_______________________________________*/\n\n  // keccak256(\n  //   \"metaSafeTransferFrom(address,address,uint256,uint256,bool,bytes)\"\n  // );\n  bytes32 internal constant META_TX_TYPEHASH = 0xce0b514b3931bdbe4d5d44e4f035afe7113767b7db71949271f6a62d9c60f558;\n\n  // keccak256(\n  //   \"metaSafeBatchTransferFrom(address,address,uint256[],uint256[],bool,bytes)\"\n  // );\n  bytes32 internal constant META_BATCH_TX_TYPEHASH = 0xa3d4926e8cf8fe8e020cd29f514c256bc2eec62aa2337e415f1a33a4828af5a0;\n\n  // keccak256(\n  //   \"metaSetApprovalForAll(address,address,bool,bool,bytes)\"\n  // );\n  bytes32 internal constant META_APPROVAL_TYPEHASH = 0xf5d4c820494c8595de274c7ff619bead38aac4fbc3d143b5bf956aa4b84fa524;\n\n  /**\n   * @notice Verifies signatures for this contract\n   * @param _signer     Address of signer\n   * @param _sigData    Encodes signature, gas payment receipt and transfer data (if any)\n   * @param _encMembers Encoded EIP-712 type members (except nonce and _data), all need to be 32 bytes size\n   * @dev _data should be encoded as (\n   *   (bytes32 r, bytes32 s, uint8 v, uint256 nonce, SignatureType sigType),\n   *   (GasReceipt g, ?bytes transferData)\n   * )\n   *   i.e. high level encoding should be (bytes, bytes), where the latter bytes array is a nested bytes array\n   * @dev A valid nonce is a nonce that is within 100 value from the current nonce\n   */\n  function _signatureValidation(\n    address _signer,\n    bytes memory _sigData,\n    bytes memory _encMembers)\n    internal returns (bytes memory signedData)\n  {\n    bytes memory sig;\n\n    // Get signature and data to sign\n    (sig, signedData) = abi.decode(_sigData, (bytes, bytes));\n\n    // Get current nonce and nonce used for signature\n    uint256 currentNonce = nonces[_signer];        // Lowest valid nonce for signer\n    uint256 nonce = uint256(sig.readBytes32(65));  // Nonce passed in the signature object\n\n    // Verify if nonce is valid\n    require(\n      (nonce >= currentNonce) && (nonce < (currentNonce + 100)),\n      \"ERC1155Meta#_signatureValidation: INVALID_NONCE\"\n    );\n\n    // Take hash of bytes arrays\n    bytes32 hash = hashEIP712Message(keccak256(abi.encodePacked(_encMembers, nonce, keccak256(signedData))));\n\n    // Complete data to pass to signer verifier\n    bytes memory fullData = abi.encodePacked(_encMembers, nonce, signedData);\n\n    //Update signature nonce\n    nonces[_signer] = nonce + 1;\n    emit NonceChange(_signer, nonce + 1);\n\n    // Verify if _from is the signer\n    require(isValidSignature(_signer, hash, fullData, sig), \"ERC1155Meta#_signatureValidation: INVALID_SIGNATURE\");\n    return signedData;\n  }\n\n  /**\n   * @notice Returns the current nonce associated with a given address\n   * @param _signer Address to query signature nonce for\n   */\n  function getNonce(address _signer)\n    public view returns (uint256 nonce)\n  {\n    return nonces[_signer];\n  }\n\n\n  /***********************************|\n  |    Gas Reimbursement Functions    |\n  |__________________________________*/\n\n  /**\n   * @notice Will reimburse tx.origin or fee recipient for the gas spent execution a transaction\n   *         Can reimbuse in any ERC-20 or ERC-1155 token\n   * @param _from  Address from which the payment will be made from\n   * @param _g     GasReceipt object that contains gas reimbursement information\n   */\n  function _transferGasFee(address _from, GasReceipt memory _g)\n      internal\n  {\n    // Pop last byte to get token fee type\n    uint8 feeTokenTypeRaw = uint8(_g.feeTokenData.popLastByte());\n\n    // Ensure valid fee token type\n    require(\n      feeTokenTypeRaw < uint8(FeeTokenType.NTypes),\n      \"ERC1155Meta#_transferGasFee: UNSUPPORTED_TOKEN\"\n    );\n\n    // Convert to FeeTokenType corresponding value\n    FeeTokenType feeTokenType = FeeTokenType(feeTokenTypeRaw);\n\n    // Declarations\n    address tokenAddress;\n    address feeRecipient;\n    uint256 tokenID;\n    uint256 fee = _g.gasFee;\n\n    // If receiver is 0x0, then anyone can claim, otherwise, refund addresse provided\n    feeRecipient = _g.feeRecipient == address(0) ? msg.sender : _g.feeRecipient;\n\n    // Fee token is ERC1155\n    if (feeTokenType == FeeTokenType.ERC1155) {\n      (tokenAddress, tokenID) = abi.decode(_g.feeTokenData, (address, uint256));\n\n      // Fee is paid from this ERC1155 contract\n      if (tokenAddress == address(this)) {\n        _safeTransferFrom(_from, feeRecipient, tokenID, fee);\n\n        // No need to protect against griefing since recipient (if contract) is most likely owned by the relayer\n        _callonERC1155Received(_from, feeRecipient, tokenID, gasleft(), fee, \"\");\n\n      // Fee is paid from another ERC-1155 contract\n      } else {\n        IERC1155(tokenAddress).safeTransferFrom(_from, feeRecipient, tokenID, fee, \"\");\n      }\n\n    // Fee token is ERC20\n    } else {\n      tokenAddress = abi.decode(_g.feeTokenData, (address));\n      require(\n        IERC20(tokenAddress).transferFrom(_from, feeRecipient, fee),\n        \"ERC1155Meta#_transferGasFee: ERC20_TRANSFER_FAILED\"\n      );\n    }\n  }\n}\n",
  "sourcePath": "D:/Apps/hashable-art-dapp/contracts/tokens/ERC1155/ERC1155Meta.sol",
  "compiler": {
    "name": "solc",
    "version": "0.7.4+commit.3f05b770.Emscripten.clang"
  },
  "schemaVersion": "3.3.4",
  "updatedAt": "2021-04-09T00:53:41.821Z",
  "devdoc": {
    "details": "ERC-1155 with native metatransaction methods. These additional functions allow users      to presign function calls and allow third parties to execute these on their behalf",
    "kind": "dev",
    "methods": {
      "balanceOf(address,uint256)": {
        "params": {
          "_id": "ID of the Token",
          "_owner": "The address of the token holder"
        },
        "returns": {
          "_0": "The _owner's balance of the Token type requested"
        }
      },
      "balanceOfBatch(address[],uint256[])": {
        "params": {
          "_ids": "ID of the Tokens",
          "_owners": "The addresses of the token holders"
        },
        "returns": {
          "_0": "The _owner's balance of the Token types requested (i.e. balance for each (owner, id) pair)"
        }
      },
      "getNonce(address)": {
        "params": {
          "_signer": "Address to query signature nonce for"
        }
      },
      "isApprovedForAll(address,address)": {
        "params": {
          "_operator": "Address of authorized operator",
          "_owner": "The owner of the Tokens"
        },
        "returns": {
          "isOperator": "True if the operator is approved, false if not"
        }
      },
      "isValidSignature(address,bytes32,bytes,bytes)": {
        "details": "Verifies that a hash has been signed by the given signer.",
        "params": {
          "_data": "Full EIP-712 data structure that was hashed and signed",
          "_hash": "Hash of the EIP-712 encoded data",
          "_sig": "Proof that the hash has been signed by signer.      For non wallet signatures, _sig is expected to be an array tightly encoded as      (bytes32 r, bytes32 s, uint8 v, uint256 nonce, SignatureType sigType)",
          "_signerAddress": "Address that should have signed the given hash."
        },
        "returns": {
          "isValid": "True if the address recovered from the provided signature matches the input signer address."
        }
      },
      "metaSafeBatchTransferFrom(address,address,uint256[],uint256[],bool,bytes)": {
        "params": {
          "_amounts": "Transfer amounts per token type",
          "_data": "Encodes a meta transfer indicator, signature, gas payment receipt and extra transfer data   _data should be encoded as (   (bytes32 r, bytes32 s, uint8 v, uint256 nonce, SignatureType sigType),   (GasReceipt g, ?bytes transferData) )   i.e. high level encoding should be (bytes, bytes), where the latter bytes array is a nested bytes array",
          "_from": "Source addresses",
          "_ids": "IDs of each token type",
          "_isGasFee": "Whether gas is reimbursed to executor or not",
          "_to": "Target addresses"
        }
      },
      "metaSafeTransferFrom(address,address,uint256,uint256,bool,bytes)": {
        "params": {
          "_amount": "Transfered amount",
          "_data": "Encodes a meta transfer indicator, signature, gas payment receipt and extra transfer data   _data should be encoded as (   (bytes32 r, bytes32 s, uint8 v, uint256 nonce, SignatureType sigType),   (GasReceipt g, ?bytes transferData) )   i.e. high level encoding should be (bytes, bytes), where the latter bytes array is a nested bytes array",
          "_from": "Source address",
          "_id": "ID of the token type",
          "_isGasFee": "Whether gas is reimbursed to executor or not",
          "_to": "Target address"
        }
      },
      "metaSetApprovalForAll(address,address,bool,bool,bytes)": {
        "params": {
          "_approved": "True if the operator is approved, false to revoke approval",
          "_data": "Encodes signature and gas payment receipt   _data should be encoded as (     (bytes32 r, bytes32 s, uint8 v, uint256 nonce, SignatureType sigType),     (GasReceipt g)   )   i.e. high level encoding should be (bytes, bytes), where the latter bytes array is a nested bytes array",
          "_isGasFee": "Whether gas will be reimbursed or not, with vlid signature",
          "_operator": "Address to add to the set of authorized operators",
          "_owner": "Address that wants to set operator status  _spender"
        }
      },
      "safeBatchTransferFrom(address,address,uint256[],uint256[],bytes)": {
        "params": {
          "_amounts": "Transfer amounts per token type",
          "_data": "Additional data with no specified format, sent in call to `_to`",
          "_from": "Source addresses",
          "_ids": "IDs of each token type",
          "_to": "Target addresses"
        }
      },
      "safeTransferFrom(address,address,uint256,uint256,bytes)": {
        "params": {
          "_amount": "Transfered amount",
          "_data": "Additional data with no specified format, sent in call to `_to`",
          "_from": "Source address",
          "_id": "ID of the token type",
          "_to": "Target address"
        }
      },
      "setApprovalForAll(address,bool)": {
        "params": {
          "_approved": "True if the operator is approved, false to revoke approval",
          "_operator": "Address to add to the set of authorized operators"
        }
      },
      "supportsInterface(bytes4)": {
        "params": {
          "_interfaceID": "The interface identifier, as specified in ERC-165"
        },
        "returns": {
          "_0": "`true` if the contract implements `_interfaceID` and"
        }
      },
      "uri(uint256)": {
        "details": "URIs are defined in RFC 3986.      URIs are assumed to be deterministically generated based on token ID",
        "returns": {
          "_0": "URI string"
        }
      }
    },
    "version": 1
  },
  "userdoc": {
    "kind": "user",
    "methods": {
      "balanceOf(address,uint256)": {
        "notice": "Get the balance of an account's Tokens"
      },
      "balanceOfBatch(address[],uint256[])": {
        "notice": "Get the balance of multiple account/token pairs"
      },
      "getNonce(address)": {
        "notice": "Returns the current nonce associated with a given address"
      },
      "isApprovedForAll(address,address)": {
        "notice": "Queries the approval status of an operator for a given owner"
      },
      "metaSafeBatchTransferFrom(address,address,uint256[],uint256[],bool,bytes)": {
        "notice": "Allows anyone with a valid signature to transfer multiple types of tokens on the bahalf of _from"
      },
      "metaSafeTransferFrom(address,address,uint256,uint256,bool,bytes)": {
        "notice": "Allows anyone with a valid signature to transfer _amount amount of a token _id on the bahalf of _from"
      },
      "metaSetApprovalForAll(address,address,bool,bool,bytes)": {
        "notice": "Approve the passed address to spend on behalf of _from if valid signature is provided"
      },
      "safeBatchTransferFrom(address,address,uint256[],uint256[],bytes)": {
        "notice": "Send multiple types of Tokens from the _from address to the _to address (with safety call)"
      },
      "safeTransferFrom(address,address,uint256,uint256,bytes)": {
        "notice": "Transfers amount amount of an _id from the _from address to the _to address specified"
      },
      "setApprovalForAll(address,bool)": {
        "notice": "Enable or disable approval for a third party (\"operator\") to manage all of caller's tokens"
      },
      "supportsInterface(bytes4)": {
        "notice": "Query if a contract implements an interface"
      },
      "uri(uint256)": {
        "notice": "A distinct Uniform Resource Identifier (URI) for a given token."
      }
    },
    "version": 1
  }
}