{
  "contractName": "SignatureValidator",
  "abi": [
    {
      "inputs": [
        {
          "internalType": "address",
          "name": "_signerAddress",
          "type": "address"
        },
        {
          "internalType": "bytes32",
          "name": "_hash",
          "type": "bytes32"
        },
        {
          "internalType": "bytes",
          "name": "_data",
          "type": "bytes"
        },
        {
          "internalType": "bytes",
          "name": "_sig",
          "type": "bytes"
        }
      ],
      "name": "isValidSignature",
      "outputs": [
        {
          "internalType": "bool",
          "name": "isValid",
          "type": "bool"
        }
      ],
      "stateMutability": "view",
      "type": "function"
    }
  ],
  "bytecode": "0x608060405234801561001057600080fd5b50610d0e806100206000396000f3fe608060405234801561001057600080fd5b506004361061002b5760003560e01c8063fa4e12d714610030575b600080fd5b6101aa6004803603608081101561004657600080fd5b81019080803573ffffffffffffffffffffffffffffffffffffffff169060200190929190803590602001909291908035906020019064010000000081111561008d57600080fd5b82018360208201111561009f57600080fd5b803590602001918460018302840111640100000000831117156100c157600080fd5b91908080601f016020809104026020016040519081016040528093929190818152602001838380828437600081840152601f19601f8201169050808301925050505050505091929192908035906020019064010000000081111561012457600080fd5b82018360208201111561013657600080fd5b8035906020019184600183028401116401000000008311171561015857600080fd5b91908080601f016020809104026020016040519081016040528093929190818152602001838380828437600081840152601f19601f8201169050808301925050505050505091929192905050506101c2565b60405180821515815260200191505060405180910390f35b60008082511161021d576040517f08c379a0000000000000000000000000000000000000000000000000000000008152600401808060200182810382526043815260200180610c5a6043913960600191505060405180910390fd5b600073ffffffffffffffffffffffffffffffffffffffff168573ffffffffffffffffffffffffffffffffffffffff1614156102a3576040517f08c379a0000000000000000000000000000000000000000000000000000000008152600401808060200182810382526033815260200180610c276033913960400191505060405180910390fd5b60006102ae83610a51565b60f81c90506005808111156102bf57fe5b60ff168160ff161061031c576040517f08c379a000000000000000000000000000000000000000000000000000000000815260040180806020018281038252603a815260200180610b80603a913960400191505060405180910390fd5b60008160ff16600581111561032d57fe5b90506000806000806000600581111561034257fe5b85600581111561034e57fe5b14156103a5576040517f08c379a0000000000000000000000000000000000000000000000000000000008152600401808060200182810382526036815260200180610bba6036913960400191505060405180910390fd5b600160058111156103b257fe5b8560058111156103be57fe5b141561050957606188511461041e576040517f08c379a0000000000000000000000000000000000000000000000000000000008152600401808060200182810382526037815260200180610bf06037913960400191505060405180910390fd5b610432600089610ad790919063ffffffff16565b9250610448602089610ad790919063ffffffff16565b91508760408151811061045757fe5b602001015160f81c60f81b60f81c935060018a85858560405160008152602001604052604051808581526020018460ff1681526020018381526020018281526020019450505050506020604051602081039080840390855afa1580156104c1573d6000803e3d6000fd5b5050506020604051035190508073ffffffffffffffffffffffffffffffffffffffff168b73ffffffffffffffffffffffffffffffffffffffff16149650505050505050610a49565b6002600581111561051657fe5b85600581111561052257fe5b14156106bb576061885114610582576040517f08c379a0000000000000000000000000000000000000000000000000000000008152600401808060200182810382526037815260200180610bf06037913960400191505060405180910390fd5b610596600089610ad790919063ffffffff16565b92506105ac602089610ad790919063ffffffff16565b9150876040815181106105bb57fe5b602001015160f81c60f81b60f81c935060018a60405160200180807f19457468657265756d205369676e6564204d6573736167653a0a333200000000815250601c018281526020019150506040516020818303038152906040528051906020012085858560405160008152602001604052604051808581526020018460ff1681526020018381526020018281526020019450505050506020604051602081039080840390855afa158015610673573d6000803e3d6000fd5b5050506020604051035190508073ffffffffffffffffffffffffffffffffffffffff168b73ffffffffffffffffffffffffffffffffffffffff16149650505050505050610a49565b600360058111156106c857fe5b8560058111156106d457fe5b141561088c578a73ffffffffffffffffffffffffffffffffffffffff166320c13b0b8a8a6040518363ffffffff1660e01b8152600401808060200180602001838103835285818151815260200191508051906020019080838360005b8381101561074b578082015181840152602081019050610730565b50505050905090810190601f1680156107785780820380516001836020036101000a031916815260200191505b50838103825284818151815260200191508051906020019080838360005b838110156107b1578082015181840152602081019050610796565b50505050905090810190601f1680156107de5780820380516001836020036101000a031916815260200191505b5094505050505060206040518083038186803b1580156107fd57600080fd5b505afa158015610811573d6000803e3d6000fd5b505050506040513d602081101561082757600080fd5b81019080805190602001909291905050507bffffffffffffffffffffffffffffffffffffffffffffffffffffffff19166320c13b0b60e01b7bffffffffffffffffffffffffffffffffffffffffffffffffffffffff1916149650505050505050610a49565b6004600581111561089957fe5b8560058111156108a557fe5b14156109f8578a73ffffffffffffffffffffffffffffffffffffffff16631626ba7e8b8a6040518363ffffffff1660e01b81526004018083815260200180602001828103825283818151815260200191508051906020019080838360005b8381101561091e578082015181840152602081019050610903565b50505050905090810190601f16801561094b5780820380516001836020036101000a031916815260200191505b50935050505060206040518083038186803b15801561096957600080fd5b505afa15801561097d573d6000803e3d6000fd5b505050506040513d602081101561099357600080fd5b81019080805190602001909291905050507bffffffffffffffffffffffffffffffffffffffffffffffffffffffff1916631626ba7e60e01b7bffffffffffffffffffffffffffffffffffffffffffffffffffffffff1916149650505050505050610a49565b6040517f08c379a000000000000000000000000000000000000000000000000000000000815260040180806020018281038252603a815260200180610b80603a913960400191505060405180910390fd5b949350505050565b600080825111610aac576040517f08c379a0000000000000000000000000000000000000000000000000000000008152600401808060200182810382526037815260200180610b496037913960400191505060405180910390fd5b81600183510381518110610abc57fe5b602001015160f81c60f81b9050600182510380835250919050565b60006020820183511015610b36576040517f08c379a000000000000000000000000000000000000000000000000000000000815260040180806020018281038252603c815260200180610c9d603c913960400191505060405180910390fd5b6020820191508183015190509291505056fe4c6962427974657323706f704c617374427974653a20475245415445525f5448414e5f5a45524f5f4c454e4754485f52455155495245445369676e617475726556616c696461746f7223697356616c69645369676e61747572653a20554e535550504f525445445f5349474e41545552455369676e617475726556616c696461746f7223697356616c69645369676e61747572653a20494c4c4547414c5f5349474e41545552455369676e617475726556616c696461746f7223697356616c69645369676e61747572653a204c454e4754485f39375f52455155495245445369676e617475726556616c696461746f7223697356616c69645369676e61747572653a20494e56414c49445f5349474e45525369676e617475726556616c696461746f7223697356616c69645369676e61747572653a204c454e4754485f475245415445525f5448414e5f305f52455155495245444c696242797465732372656164427974657333323a20475245415445525f4f525f455155414c5f544f5f33325f4c454e4754485f5245515549524544a264697066735822122055548eb01b1e4075c7c45926d994a0c9a309294dac5b7e84b38d8fa6f346173164736f6c63430007040033",
  "immutableReferences": {},
  "source": "pragma solidity 0.7.4;\n\nimport \"../interfaces/IERC1271Wallet.sol\";\nimport \"./LibBytes.sol\";\nimport \"./LibEIP712.sol\";\n\n\n/**\n * @dev Contains logic for signature validation.\n * Signatures from wallet contracts assume ERC-1271 support (https://github.com/ethereum/EIPs/blob/master/EIPS/eip-1271.md)\n * Notes: Methods are strongly inspired by contracts in https://github.com/0xProject/0x-monorepo/blob/development/\n */\ncontract SignatureValidator is LibEIP712 {\n  using LibBytes for bytes;\n\n  /***********************************|\n  |             Variables             |\n  |__________________________________*/\n\n  // bytes4(keccak256(\"isValidSignature(bytes,bytes)\"))\n  bytes4 constant internal ERC1271_MAGICVALUE = 0x20c13b0b;\n\n  // bytes4(keccak256(\"isValidSignature(bytes32,bytes)\"))\n  bytes4 constant internal ERC1271_MAGICVALUE_BYTES32 = 0x1626ba7e;\n\n  // Allowed signature types.\n  enum SignatureType {\n    Illegal,         // 0x00, default value\n    EIP712,          // 0x01\n    EthSign,         // 0x02\n    WalletBytes,     // 0x03 To call isValidSignature(bytes, bytes) on wallet contract\n    WalletBytes32,   // 0x04 To call isValidSignature(bytes32, bytes) on wallet contract\n    NSignatureTypes  // 0x05, number of signature types. Always leave at end.\n  }\n\n\n  /***********************************|\n  |        Signature Functions        |\n  |__________________________________*/\n\n  /**\n   * @dev Verifies that a hash has been signed by the given signer.\n   * @param _signerAddress  Address that should have signed the given hash.\n   * @param _hash           Hash of the EIP-712 encoded data\n   * @param _data           Full EIP-712 data structure that was hashed and signed\n   * @param _sig            Proof that the hash has been signed by signer.\n   *      For non wallet signatures, _sig is expected to be an array tightly encoded as\n   *      (bytes32 r, bytes32 s, uint8 v, uint256 nonce, SignatureType sigType)\n   * @return isValid True if the address recovered from the provided signature matches the input signer address.\n   */\n  function isValidSignature(\n    address _signerAddress,\n    bytes32 _hash,\n    bytes memory _data,\n    bytes memory _sig\n  )\n    public\n    view\n    returns (bool isValid)\n  {\n    require(\n      _sig.length > 0,\n      \"SignatureValidator#isValidSignature: LENGTH_GREATER_THAN_0_REQUIRED\"\n    );\n\n    require(\n      _signerAddress != address(0x0),\n      \"SignatureValidator#isValidSignature: INVALID_SIGNER\"\n    );\n\n    // Pop last byte off of signature byte array.\n    uint8 signatureTypeRaw = uint8(_sig.popLastByte());\n\n    // Ensure signature is supported\n    require(\n      signatureTypeRaw < uint8(SignatureType.NSignatureTypes),\n      \"SignatureValidator#isValidSignature: UNSUPPORTED_SIGNATURE\"\n    );\n\n    // Extract signature type\n    SignatureType signatureType = SignatureType(signatureTypeRaw);\n\n    // Variables are not scoped in Solidity.\n    uint8 v;\n    bytes32 r;\n    bytes32 s;\n    address recovered;\n\n    // Always illegal signature.\n    // This is always an implicit option since a signer can create a\n    // signature array with invalid type or length. We may as well make\n    // it an explicit option. This aids testing and analysis. It is\n    // also the initialization value for the enum type.\n    if (signatureType == SignatureType.Illegal) {\n      revert(\"SignatureValidator#isValidSignature: ILLEGAL_SIGNATURE\");\n\n\n    // Signature using EIP712\n    } else if (signatureType == SignatureType.EIP712) {\n      require(\n        _sig.length == 97,\n        \"SignatureValidator#isValidSignature: LENGTH_97_REQUIRED\"\n      );\n      r = _sig.readBytes32(0);\n      s = _sig.readBytes32(32);\n      v = uint8(_sig[64]);\n      recovered = ecrecover(_hash, v, r, s);\n      isValid = _signerAddress == recovered;\n      return isValid;\n\n\n    // Signed using web3.eth_sign() or Ethers wallet.signMessage()\n    } else if (signatureType == SignatureType.EthSign) {\n      require(\n        _sig.length == 97,\n        \"SignatureValidator#isValidSignature: LENGTH_97_REQUIRED\"\n      );\n      r = _sig.readBytes32(0);\n      s = _sig.readBytes32(32);\n      v = uint8(_sig[64]);\n      recovered = ecrecover(\n        keccak256(abi.encodePacked(\"\\x19Ethereum Signed Message:\\n32\", _hash)),\n        v,\n        r,\n        s\n      );\n      isValid = _signerAddress == recovered;\n      return isValid;\n\n\n    // Signature verified by wallet contract with data validation.\n    } else if (signatureType == SignatureType.WalletBytes) {\n      isValid = ERC1271_MAGICVALUE == IERC1271Wallet(_signerAddress).isValidSignature(_data, _sig);\n      return isValid;\n\n\n    // Signature verified by wallet contract without data validation.\n    } else if (signatureType == SignatureType.WalletBytes32) {\n      isValid = ERC1271_MAGICVALUE_BYTES32 == IERC1271Wallet(_signerAddress).isValidSignature(_hash, _sig);\n      return isValid;\n    }\n\n    // Anything else is illegal (We do not return false because\n    // the signature may actually be valid, just not in a format\n    // that we currently support. In this case returning false\n    // may lead the caller to incorrectly believe that the\n    // signature was invalid.)\n    revert(\"SignatureValidator#isValidSignature: UNSUPPORTED_SIGNATURE\");\n  }\n}\n",
  "sourcePath": "D:/Apps/hashable-art-dapp/contracts/utils/SignatureValidator.sol",
  "compiler": {
    "name": "solc",
    "version": "0.7.4+commit.3f05b770.Emscripten.clang"
  },
  "schemaVersion": "3.3.4",
  "updatedAt": "2021-04-09T00:53:53.512Z",
  "devdoc": {
    "details": "Contains logic for signature validation. Signatures from wallet contracts assume ERC-1271 support (https://github.com/ethereum/EIPs/blob/master/EIPS/eip-1271.md) Notes: Methods are strongly inspired by contracts in https://github.com/0xProject/0x-monorepo/blob/development/",
    "kind": "dev",
    "methods": {
      "isValidSignature(address,bytes32,bytes,bytes)": {
        "details": "Verifies that a hash has been signed by the given signer.",
        "params": {
          "_data": "Full EIP-712 data structure that was hashed and signed",
          "_hash": "Hash of the EIP-712 encoded data",
          "_sig": "Proof that the hash has been signed by signer.      For non wallet signatures, _sig is expected to be an array tightly encoded as      (bytes32 r, bytes32 s, uint8 v, uint256 nonce, SignatureType sigType)",
          "_signerAddress": "Address that should have signed the given hash."
        },
        "returns": {
          "isValid": "True if the address recovered from the provided signature matches the input signer address."
        }
      }
    },
    "version": 1
  },
  "userdoc": {
    "kind": "user",
    "methods": {},
    "version": 1
  }
}